{
  "contractName": "AxRaffle",
  "abi": [
    {
      "constant": true,
      "inputs": [],
      "name": "potEndedTimestamp",
      "outputs": [
        {
          "name": "",
          "type": "uint256"
        }
      ],
      "payable": false,
      "stateMutability": "view",
      "type": "function"
    },
    {
      "constant": true,
      "inputs": [],
      "name": "operatorAddress",
      "outputs": [
        {
          "name": "",
          "type": "address"
        }
      ],
      "payable": false,
      "stateMutability": "view",
      "type": "function"
    },
    {
      "constant": true,
      "inputs": [
        {
          "name": "",
          "type": "uint256"
        }
      ],
      "name": "potTokenAmts",
      "outputs": [
        {
          "name": "",
          "type": "uint256"
        }
      ],
      "payable": false,
      "stateMutability": "view",
      "type": "function"
    },
    {
      "constant": true,
      "inputs": [],
      "name": "ERC20Interface",
      "outputs": [
        {
          "name": "",
          "type": "address"
        }
      ],
      "payable": false,
      "stateMutability": "view",
      "type": "function"
    },
    {
      "constant": true,
      "inputs": [
        {
          "name": "",
          "type": "address"
        }
      ],
      "name": "gameTokenStatuses",
      "outputs": [
        {
          "name": "",
          "type": "bool"
        }
      ],
      "payable": false,
      "stateMutability": "view",
      "type": "function"
    },
    {
      "constant": true,
      "inputs": [],
      "name": "isActiveTokenPayment",
      "outputs": [
        {
          "name": "",
          "type": "bool"
        }
      ],
      "payable": false,
      "stateMutability": "view",
      "type": "function"
    },
    {
      "constant": true,
      "inputs": [
        {
          "name": "",
          "type": "address"
        },
        {
          "name": "",
          "type": "uint256"
        }
      ],
      "name": "gameWinnerIndexes",
      "outputs": [
        {
          "name": "",
          "type": "uint256"
        }
      ],
      "payable": false,
      "stateMutability": "view",
      "type": "function"
    },
    {
      "constant": false,
      "inputs": [],
      "name": "unpause",
      "outputs": [],
      "payable": false,
      "stateMutability": "nonpayable",
      "type": "function"
    },
    {
      "constant": true,
      "inputs": [
        {
          "name": "",
          "type": "uint256"
        }
      ],
      "name": "potTokens",
      "outputs": [
        {
          "name": "",
          "type": "address"
        }
      ],
      "payable": false,
      "stateMutability": "view",
      "type": "function"
    },
    {
      "constant": true,
      "inputs": [],
      "name": "potOpenedTimestamp",
      "outputs": [
        {
          "name": "",
          "type": "uint256"
        }
      ],
      "payable": false,
      "stateMutability": "view",
      "type": "function"
    },
    {
      "constant": true,
      "inputs": [
        {
          "name": "",
          "type": "address"
        }
      ],
      "name": "potPlayerIndexes",
      "outputs": [
        {
          "name": "",
          "type": "uint256"
        }
      ],
      "payable": false,
      "stateMutability": "view",
      "type": "function"
    },
    {
      "constant": true,
      "inputs": [],
      "name": "potClosedTimestamp",
      "outputs": [
        {
          "name": "",
          "type": "uint256"
        }
      ],
      "payable": false,
      "stateMutability": "view",
      "type": "function"
    },
    {
      "constant": true,
      "inputs": [],
      "name": "totalWeiPot",
      "outputs": [
        {
          "name": "",
          "type": "uint256"
        }
      ],
      "payable": false,
      "stateMutability": "view",
      "type": "function"
    },
    {
      "constant": true,
      "inputs": [],
      "name": "paused",
      "outputs": [
        {
          "name": "",
          "type": "bool"
        }
      ],
      "payable": false,
      "stateMutability": "view",
      "type": "function"
    },
    {
      "constant": true,
      "inputs": [],
      "name": "potSellingPeriod",
      "outputs": [
        {
          "name": "",
          "type": "uint256"
        }
      ],
      "payable": false,
      "stateMutability": "view",
      "type": "function"
    },
    {
      "constant": false,
      "inputs": [],
      "name": "renounceOwnership",
      "outputs": [],
      "payable": false,
      "stateMutability": "nonpayable",
      "type": "function"
    },
    {
      "constant": true,
      "inputs": [],
      "name": "lengthOfPotTokens",
      "outputs": [
        {
          "name": "",
          "type": "uint256"
        }
      ],
      "payable": false,
      "stateMutability": "view",
      "type": "function"
    },
    {
      "constant": true,
      "inputs": [
        {
          "name": "",
          "type": "uint256"
        }
      ],
      "name": "gameWinners",
      "outputs": [
        {
          "name": "player_",
          "type": "address"
        },
        {
          "name": "totalOwnedTickets_",
          "type": "uint256"
        },
        {
          "name": "totalUsedWeiAmt_",
          "type": "uint256"
        },
        {
          "name": "potPrizeWeiAmt_",
          "type": "uint256"
        },
        {
          "name": "potEndedTimeStamp_",
          "type": "uint256"
        }
      ],
      "payable": false,
      "stateMutability": "view",
      "type": "function"
    },
    {
      "constant": true,
      "inputs": [],
      "name": "lengthOfGameWinners",
      "outputs": [
        {
          "name": "",
          "type": "uint256"
        }
      ],
      "payable": false,
      "stateMutability": "view",
      "type": "function"
    },
    {
      "constant": false,
      "inputs": [],
      "name": "pause",
      "outputs": [],
      "payable": false,
      "stateMutability": "nonpayable",
      "type": "function"
    },
    {
      "constant": true,
      "inputs": [],
      "name": "owner",
      "outputs": [
        {
          "name": "",
          "type": "address"
        }
      ],
      "payable": false,
      "stateMutability": "view",
      "type": "function"
    },
    {
      "constant": true,
      "inputs": [],
      "name": "tokenFeeRate",
      "outputs": [
        {
          "name": "",
          "type": "uint256"
        }
      ],
      "payable": false,
      "stateMutability": "view",
      "type": "function"
    },
    {
      "constant": true,
      "inputs": [],
      "name": "weiPerTicket",
      "outputs": [
        {
          "name": "",
          "type": "uint256"
        }
      ],
      "payable": false,
      "stateMutability": "view",
      "type": "function"
    },
    {
      "constant": true,
      "inputs": [
        {
          "name": "",
          "type": "uint256"
        }
      ],
      "name": "potPlayers",
      "outputs": [
        {
          "name": "player_",
          "type": "address"
        },
        {
          "name": "totalOwnedTickets_",
          "type": "uint256"
        },
        {
          "name": "totalUsedWeiAmt_",
          "type": "uint256"
        },
        {
          "name": "potPrizeWeiAmt_",
          "type": "uint256"
        },
        {
          "name": "potEndedTimeStamp_",
          "type": "uint256"
        }
      ],
      "payable": false,
      "stateMutability": "view",
      "type": "function"
    },
    {
      "constant": true,
      "inputs": [],
      "name": "potOpeningPeriod",
      "outputs": [
        {
          "name": "",
          "type": "uint256"
        }
      ],
      "payable": false,
      "stateMutability": "view",
      "type": "function"
    },
    {
      "constant": true,
      "inputs": [],
      "name": "weiFeeRate",
      "outputs": [
        {
          "name": "",
          "type": "uint256"
        }
      ],
      "payable": false,
      "stateMutability": "view",
      "type": "function"
    },
    {
      "constant": true,
      "inputs": [],
      "name": "ticketNumberCeiling",
      "outputs": [
        {
          "name": "",
          "type": "uint256"
        }
      ],
      "payable": false,
      "stateMutability": "view",
      "type": "function"
    },
    {
      "constant": true,
      "inputs": [],
      "name": "lengthOfGameTokens",
      "outputs": [
        {
          "name": "",
          "type": "uint256"
        }
      ],
      "payable": false,
      "stateMutability": "view",
      "type": "function"
    },
    {
      "constant": true,
      "inputs": [],
      "name": "gameIsActive",
      "outputs": [
        {
          "name": "",
          "type": "bool"
        }
      ],
      "payable": false,
      "stateMutability": "view",
      "type": "function"
    },
    {
      "constant": true,
      "inputs": [
        {
          "name": "",
          "type": "address"
        }
      ],
      "name": "potTokenIndexes",
      "outputs": [
        {
          "name": "",
          "type": "uint256"
        }
      ],
      "payable": false,
      "stateMutability": "view",
      "type": "function"
    },
    {
      "constant": true,
      "inputs": [
        {
          "name": "",
          "type": "address"
        }
      ],
      "name": "gameTokenIndexes",
      "outputs": [
        {
          "name": "",
          "type": "uint256"
        }
      ],
      "payable": false,
      "stateMutability": "view",
      "type": "function"
    },
    {
      "constant": false,
      "inputs": [
        {
          "name": "_newOwner",
          "type": "address"
        }
      ],
      "name": "transferOwnership",
      "outputs": [],
      "payable": false,
      "stateMutability": "nonpayable",
      "type": "function"
    },
    {
      "constant": true,
      "inputs": [],
      "name": "lengthOfPotPlayers",
      "outputs": [
        {
          "name": "",
          "type": "uint256"
        }
      ],
      "payable": false,
      "stateMutability": "view",
      "type": "function"
    },
    {
      "inputs": [
        {
          "name": "_operatorAddress",
          "type": "address"
        },
        {
          "name": "_potSellingPeriod",
          "type": "uint256"
        },
        {
          "name": "_potOpeningPeriod",
          "type": "uint256"
        },
        {
          "name": "_weiPerTicket",
          "type": "uint256"
        },
        {
          "name": "_weiFeeRate",
          "type": "uint256"
        },
        {
          "name": "_tokenFeeRate",
          "type": "uint256"
        }
      ],
      "payable": false,
      "stateMutability": "nonpayable",
      "type": "constructor"
    },
    {
      "payable": true,
      "stateMutability": "payable",
      "type": "fallback"
    },
    {
      "anonymous": false,
      "inputs": [
        {
          "indexed": false,
          "name": "_active",
          "type": "bool"
        }
      ],
      "name": "ActivateGame",
      "type": "event"
    },
    {
      "anonymous": false,
      "inputs": [
        {
          "indexed": false,
          "name": "_deactive",
          "type": "bool"
        }
      ],
      "name": "DeactivateGame",
      "type": "event"
    },
    {
      "anonymous": false,
      "inputs": [
        {
          "indexed": true,
          "name": "playerAddress",
          "type": "address"
        },
        {
          "indexed": false,
          "name": "weiAmount",
          "type": "uint256"
        },
        {
          "indexed": false,
          "name": "startTicketNumber",
          "type": "uint256"
        },
        {
          "indexed": false,
          "name": "endTicketNumber",
          "type": "uint256"
        }
      ],
      "name": "PurchaseTicketsByWei",
      "type": "event"
    },
    {
      "anonymous": false,
      "inputs": [
        {
          "indexed": true,
          "name": "winnerAddress",
          "type": "address"
        },
        {
          "indexed": false,
          "name": "winnerTicketNumber",
          "type": "uint256"
        },
        {
          "indexed": false,
          "name": "potEndedTimestamp",
          "type": "uint256"
        }
      ],
      "name": "DrawTicket",
      "type": "event"
    },
    {
      "anonymous": false,
      "inputs": [
        {
          "indexed": true,
          "name": "from_",
          "type": "address"
        },
        {
          "indexed": true,
          "name": "to_",
          "type": "address"
        },
        {
          "indexed": true,
          "name": "token_",
          "type": "address"
        },
        {
          "indexed": false,
          "name": "tokenAmount_",
          "type": "uint256"
        }
      ],
      "name": "TokenTransferFailed",
      "type": "event"
    },
    {
      "anonymous": false,
      "inputs": [
        {
          "indexed": true,
          "name": "from_",
          "type": "address"
        },
        {
          "indexed": true,
          "name": "to_",
          "type": "address"
        },
        {
          "indexed": true,
          "name": "token_",
          "type": "address"
        },
        {
          "indexed": false,
          "name": "tokenAmount_",
          "type": "uint256"
        }
      ],
      "name": "TokenTransferSuccessful",
      "type": "event"
    },
    {
      "anonymous": false,
      "inputs": [],
      "name": "Pause",
      "type": "event"
    },
    {
      "anonymous": false,
      "inputs": [],
      "name": "Unpause",
      "type": "event"
    },
    {
      "anonymous": false,
      "inputs": [
        {
          "indexed": true,
          "name": "previousOwner",
          "type": "address"
        }
      ],
      "name": "OwnershipRenounced",
      "type": "event"
    },
    {
      "anonymous": false,
      "inputs": [
        {
          "indexed": true,
          "name": "previousOwner",
          "type": "address"
        },
        {
          "indexed": true,
          "name": "newOwner",
          "type": "address"
        }
      ],
      "name": "OwnershipTransferred",
      "type": "event"
    },
    {
      "constant": false,
      "inputs": [
        {
          "name": "_operatorAddress",
          "type": "address"
        }
      ],
      "name": "setOperatorWalletAddress",
      "outputs": [],
      "payable": false,
      "stateMutability": "nonpayable",
      "type": "function"
    },
    {
      "constant": false,
      "inputs": [
        {
          "name": "_isActiveTokenPayment",
          "type": "bool"
        }
      ],
      "name": "setTokenPaymentStatus",
      "outputs": [],
      "payable": false,
      "stateMutability": "nonpayable",
      "type": "function"
    },
    {
      "constant": false,
      "inputs": [
        {
          "name": "_tokens",
          "type": "address[]"
        },
        {
          "name": "_tokenSymbols",
          "type": "bytes32[]"
        },
        {
          "name": "_tokenDecimals",
          "type": "uint256[]"
        },
        {
          "name": "_amountPerTicket",
          "type": "uint256[]"
        }
      ],
      "name": "addNewTokenPaymentInfo",
      "outputs": [],
      "payable": false,
      "stateMutability": "nonpayable",
      "type": "function"
    },
    {
      "constant": false,
      "inputs": [
        {
          "name": "_tokens",
          "type": "address[]"
        }
      ],
      "name": "removeTokenPaymentInfo",
      "outputs": [],
      "payable": false,
      "stateMutability": "nonpayable",
      "type": "function"
    },
    {
      "constant": false,
      "inputs": [
        {
          "name": "_weiPerTicket",
          "type": "uint256"
        },
        {
          "name": "_weiFeeRate",
          "type": "uint256"
        },
        {
          "name": "_tokenFeeRate",
          "type": "uint256"
        }
      ],
      "name": "setTicketSales",
      "outputs": [],
      "payable": false,
      "stateMutability": "nonpayable",
      "type": "function"
    },
    {
      "constant": false,
      "inputs": [],
      "name": "activateGame",
      "outputs": [],
      "payable": false,
      "stateMutability": "nonpayable",
      "type": "function"
    },
    {
      "constant": false,
      "inputs": [],
      "name": "deactivateGame",
      "outputs": [],
      "payable": false,
      "stateMutability": "nonpayable",
      "type": "function"
    },
    {
      "constant": false,
      "inputs": [
        {
          "name": "_potOpenedTimestamp",
          "type": "uint256"
        },
        {
          "name": "_potSellingPeriod",
          "type": "uint256"
        },
        {
          "name": "_potOpeningPeriod",
          "type": "uint256"
        }
      ],
      "name": "openPot",
      "outputs": [],
      "payable": false,
      "stateMutability": "nonpayable",
      "type": "function"
    },
    {
      "constant": false,
      "inputs": [
        {
          "name": "_potClosedTimestamp",
          "type": "uint256"
        }
      ],
      "name": "closePot",
      "outputs": [],
      "payable": false,
      "stateMutability": "nonpayable",
      "type": "function"
    },
    {
      "constant": false,
      "inputs": [
        {
          "name": "_tokens",
          "type": "address[]"
        },
        {
          "name": "_tokenAmts",
          "type": "uint256[]"
        }
      ],
      "name": "purchaseTicketsByTokens",
      "outputs": [],
      "payable": false,
      "stateMutability": "nonpayable",
      "type": "function"
    },
    {
      "constant": false,
      "inputs": [],
      "name": "purchaseTicketsByWei",
      "outputs": [],
      "payable": false,
      "stateMutability": "nonpayable",
      "type": "function"
    },
    {
      "constant": false,
      "inputs": [],
      "name": "drawTicket",
      "outputs": [],
      "payable": false,
      "stateMutability": "nonpayable",
      "type": "function"
    },
    {
      "constant": false,
      "inputs": [],
      "name": "prepareOpeningNextPot",
      "outputs": [],
      "payable": false,
      "stateMutability": "nonpayable",
      "type": "function"
    },
    {
      "constant": true,
      "inputs": [
        {
          "name": "_ticketNumber",
          "type": "uint256"
        }
      ],
      "name": "lookUpPlayerAddressByTicketNumber",
      "outputs": [
        {
          "name": "",
          "type": "address"
        }
      ],
      "payable": false,
      "stateMutability": "view",
      "type": "function"
    },
    {
      "constant": true,
      "inputs": [
        {
          "name": "_playerAddress",
          "type": "address"
        }
      ],
      "name": "lookUpTicketNumbersByPlayerAddress",
      "outputs": [
        {
          "name": "",
          "type": "uint256[1000]"
        }
      ],
      "payable": false,
      "stateMutability": "view",
      "type": "function"
    },
    {
      "constant": true,
      "inputs": [],
      "name": "checkCurrentTimestamp",
      "outputs": [
        {
          "name": "",
          "type": "uint256"
        }
      ],
      "payable": false,
      "stateMutability": "view",
      "type": "function"
    },
    {
      "constant": true,
      "inputs": [],
      "name": "getRaffleParams",
      "outputs": [
        {
          "name": "",
          "type": "uint256"
        },
        {
          "name": "",
          "type": "uint256"
        },
        {
          "name": "",
          "type": "uint256"
        },
        {
          "name": "",
          "type": "uint256"
        },
        {
          "name": "",
          "type": "uint256"
        },
        {
          "name": "",
          "type": "uint256"
        },
        {
          "name": "",
          "type": "uint256"
        },
        {
          "name": "",
          "type": "uint256"
        },
        {
          "name": "",
          "type": "uint256"
        },
        {
          "name": "",
          "type": "uint256"
        },
        {
          "name": "",
          "type": "uint256"
        }
      ],
      "payable": false,
      "stateMutability": "view",
      "type": "function"
    },
    {
      "constant": true,
      "inputs": [
        {
          "name": "_from",
          "type": "uint256"
        },
        {
          "name": "_noPlayers",
          "type": "uint256"
        }
      ],
      "name": "get100PotPlayers",
      "outputs": [
        {
          "components": [
            {
              "name": "player_",
              "type": "address"
            },
            {
              "name": "totalOwnedTickets_",
              "type": "uint256"
            },
            {
              "name": "totalUsedWeiAmt_",
              "type": "uint256"
            },
            {
              "name": "usedTokens_",
              "type": "address[]"
            },
            {
              "name": "totalUsedTokenAmts_",
              "type": "uint256[]"
            },
            {
              "name": "ticketStartNumbers_",
              "type": "uint256[]"
            },
            {
              "name": "ticketEndNumbers_",
              "type": "uint256[]"
            },
            {
              "name": "potPrizeWeiAmt_",
              "type": "uint256"
            },
            {
              "name": "potPrizeTokens_",
              "type": "address[]"
            },
            {
              "name": "potPrizeTokenAmts_",
              "type": "uint256[]"
            },
            {
              "name": "potEndedTimeStamp_",
              "type": "uint256"
            }
          ],
          "name": "",
          "type": "tuple[100]"
        }
      ],
      "payable": false,
      "stateMutability": "view",
      "type": "function"
    },
    {
      "constant": true,
      "inputs": [
        {
          "name": "_player",
          "type": "address"
        }
      ],
      "name": "getPotPlayerInfoByAddress",
      "outputs": [
        {
          "components": [
            {
              "name": "player_",
              "type": "address"
            },
            {
              "name": "totalOwnedTickets_",
              "type": "uint256"
            },
            {
              "name": "totalUsedWeiAmt_",
              "type": "uint256"
            },
            {
              "name": "usedTokens_",
              "type": "address[]"
            },
            {
              "name": "totalUsedTokenAmts_",
              "type": "uint256[]"
            },
            {
              "name": "ticketStartNumbers_",
              "type": "uint256[]"
            },
            {
              "name": "ticketEndNumbers_",
              "type": "uint256[]"
            },
            {
              "name": "potPrizeWeiAmt_",
              "type": "uint256"
            },
            {
              "name": "potPrizeTokens_",
              "type": "address[]"
            },
            {
              "name": "potPrizeTokenAmts_",
              "type": "uint256[]"
            },
            {
              "name": "potEndedTimeStamp_",
              "type": "uint256"
            }
          ],
          "name": "",
          "type": "tuple"
        }
      ],
      "payable": false,
      "stateMutability": "view",
      "type": "function"
    },
    {
      "constant": true,
      "inputs": [
        {
          "name": "_player",
          "type": "address"
        }
      ],
      "name": "getPotPlayerTotalOwnedTicketsAndUsedWeiByAddress",
      "outputs": [
        {
          "name": "",
          "type": "uint256"
        },
        {
          "name": "",
          "type": "uint256"
        }
      ],
      "payable": false,
      "stateMutability": "view",
      "type": "function"
    },
    {
      "constant": true,
      "inputs": [
        {
          "name": "_player",
          "type": "address"
        }
      ],
      "name": "getPotPlayerUsedTokensByAddress",
      "outputs": [
        {
          "name": "",
          "type": "address[1000]"
        }
      ],
      "payable": false,
      "stateMutability": "view",
      "type": "function"
    },
    {
      "constant": true,
      "inputs": [
        {
          "name": "_player",
          "type": "address"
        }
      ],
      "name": "getPotPlayerUsedTokenAmtsByAddress",
      "outputs": [
        {
          "name": "",
          "type": "uint256[1000]"
        }
      ],
      "payable": false,
      "stateMutability": "view",
      "type": "function"
    },
    {
      "constant": true,
      "inputs": [
        {
          "name": "_from",
          "type": "uint256"
        },
        {
          "name": "_noWinners",
          "type": "uint256"
        }
      ],
      "name": "get100Winners",
      "outputs": [
        {
          "components": [
            {
              "name": "player_",
              "type": "address"
            },
            {
              "name": "totalOwnedTickets_",
              "type": "uint256"
            },
            {
              "name": "totalUsedWeiAmt_",
              "type": "uint256"
            },
            {
              "name": "usedTokens_",
              "type": "address[]"
            },
            {
              "name": "totalUsedTokenAmts_",
              "type": "uint256[]"
            },
            {
              "name": "ticketStartNumbers_",
              "type": "uint256[]"
            },
            {
              "name": "ticketEndNumbers_",
              "type": "uint256[]"
            },
            {
              "name": "potPrizeWeiAmt_",
              "type": "uint256"
            },
            {
              "name": "potPrizeTokens_",
              "type": "address[]"
            },
            {
              "name": "potPrizeTokenAmts_",
              "type": "uint256[]"
            },
            {
              "name": "potEndedTimeStamp_",
              "type": "uint256"
            }
          ],
          "name": "",
          "type": "tuple[100]"
        }
      ],
      "payable": false,
      "stateMutability": "view",
      "type": "function"
    },
    {
      "constant": true,
      "inputs": [
        {
          "name": "_winner",
          "type": "address"
        },
        {
          "name": "_time",
          "type": "uint256"
        }
      ],
      "name": "getWinnerInfoByAddressAndIndex",
      "outputs": [
        {
          "components": [
            {
              "name": "player_",
              "type": "address"
            },
            {
              "name": "totalOwnedTickets_",
              "type": "uint256"
            },
            {
              "name": "totalUsedWeiAmt_",
              "type": "uint256"
            },
            {
              "name": "usedTokens_",
              "type": "address[]"
            },
            {
              "name": "totalUsedTokenAmts_",
              "type": "uint256[]"
            },
            {
              "name": "ticketStartNumbers_",
              "type": "uint256[]"
            },
            {
              "name": "ticketEndNumbers_",
              "type": "uint256[]"
            },
            {
              "name": "potPrizeWeiAmt_",
              "type": "uint256"
            },
            {
              "name": "potPrizeTokens_",
              "type": "address[]"
            },
            {
              "name": "potPrizeTokenAmts_",
              "type": "uint256[]"
            },
            {
              "name": "potEndedTimeStamp_",
              "type": "uint256"
            }
          ],
          "name": "",
          "type": "tuple"
        }
      ],
      "payable": false,
      "stateMutability": "view",
      "type": "function"
    },
    {
      "constant": true,
      "inputs": [
        {
          "name": "_winner",
          "type": "address"
        },
        {
          "name": "_time",
          "type": "uint256"
        }
      ],
      "name": "getWinnerPotWeiAndTimestampByAddressAndIndex",
      "outputs": [
        {
          "name": "",
          "type": "uint256"
        },
        {
          "name": "",
          "type": "uint256"
        }
      ],
      "payable": false,
      "stateMutability": "view",
      "type": "function"
    },
    {
      "constant": true,
      "inputs": [
        {
          "name": "_winner",
          "type": "address"
        },
        {
          "name": "_time",
          "type": "uint256"
        }
      ],
      "name": "getWinnerPotPrizeTokensByAddressAndIndex",
      "outputs": [
        {
          "name": "",
          "type": "address[1000]"
        }
      ],
      "payable": false,
      "stateMutability": "view",
      "type": "function"
    },
    {
      "constant": true,
      "inputs": [
        {
          "name": "_winner",
          "type": "address"
        },
        {
          "name": "_time",
          "type": "uint256"
        }
      ],
      "name": "getWinnerPotPrizeTokenAmtsByAddressAndIndex",
      "outputs": [
        {
          "name": "",
          "type": "uint256[1000]"
        }
      ],
      "payable": false,
      "stateMutability": "view",
      "type": "function"
    },
    {
      "constant": true,
      "inputs": [
        {
          "name": "_winner",
          "type": "address"
        }
      ],
      "name": "getWonTimeByAddress",
      "outputs": [
        {
          "name": "",
          "type": "uint256"
        }
      ],
      "payable": false,
      "stateMutability": "view",
      "type": "function"
    },
    {
      "constant": true,
      "inputs": [],
      "name": "getActiveGameTokens",
      "outputs": [
        {
          "components": [
            {
              "name": "contract_",
              "type": "address"
            },
            {
              "name": "symbol_",
              "type": "bytes32"
            },
            {
              "name": "decimals_",
              "type": "uint256"
            },
            {
              "name": "amountPerTicket_",
              "type": "uint256"
            }
          ],
          "name": "",
          "type": "tuple[100]"
        }
      ],
      "payable": false,
      "stateMutability": "view",
      "type": "function"
    }
  ],
  "bytecode": "0x60806040526000805460a060020a60ff02191690553480156200002157600080fd5b5060405160c08062005a74833981018060405262000043919081019062000146565b60008054600160a060020a03191633179055600160a060020a0386161515620000a3576040517f08c379a00000000000000000000000000000000000000000000000000000000081526004016200009a906200020a565b60405180910390fd5b60018054600160a060020a031916600160a060020a0397909716969096179095556008939093556009919091556002556003556013556004805460ff199081169091556000600a819055600b819055600c8190556007819055600d81905560108190556011819055601280549092169091556017819055601b5562000231565b600062000131825162000222565b9392505050565b60006200013182516200022e565b60008060008060008060c087890312156200016057600080fd5b60006200016e898962000123565b96505060206200018189828a0162000138565b95505060406200019489828a0162000138565b9450506060620001a789828a0162000138565b9350506080620001ba89828a0162000138565b92505060a0620001cd89828a0162000138565b9150509295509295509295565b601581527f6f70657261746f72206164647265737320697320300000000000000000000000602082015260400190565b602080825281016200021c81620001da565b92915050565b600160a060020a031690565b90565b61583380620002416000396000f3006080604052600436106102c55763ffffffff60e060020a600035041662dd4b76811461034557806302b97f7d14610365578063051a75ac1461039b578063127effb2146103b0578063152637db146103d25780631b69da90146103f25780631bbc4b83146104125780631c4cb1501461043457806320e3a9961461046157806323172dbb14610476578063264705001461048b5780632ee99d50146104ab5780633efb55be146104c05780633f4ba83a146104ed57806343f0f9b414610502578063451f1f921461052f57806347cb5fa41461055c57806349183f451461057c578063494b973f1461059c57806350e02003146105b15780635202ab9c146105d15780635a112b04146105e65780635af3210d146105fb5780635c975abb1461062857806360c192d61461063d57806369254a0b1461065d5780636945d01f1461067d5780637106180814610692578063715018a6146106a75780637bcec364146106bc5780637bdd449c146106d15780638409788a146107025780638456cb591461071757806385be53a01461072c57806389f18d451461074c5780638da5cb5b1461077a578063912bf2dc1461078f57806393455748146107af57806394910578146107d15780639e6b59f8146107e6578063a4cd90be146107fb578063a8cc67aa1461081b578063a98b01c61461083b578063aa0846e814610850578063b2dcd94914610870578063b770987714610890578063b963e9c3146108a5578063bbaf952f146108ba578063beff88f5146108cf578063c67863ae146108ef578063d03d27cc1461090f578063d6ea04601461093b578063dd4749c81461095b578063e2784c3a14610970578063e69b02d914610985578063eaff61a4146109a5578063f2baba51146109c5578063f2fde38b146109e5578063f5bbfe3314610a05578063f6f14dfe14610a1a578063f995f7a414610a2f578063fb6f74ed14610a4f575b60045460ff1615156001146102f85760405160e560020a62461bcd0281526004016102ef9061566a565b60405180910390fd5b6000600a5411801561030c5750600a544210155b801561031a5750600b544211155b151561033b5760405160e560020a62461bcd0281526004016102ef906156ba565b610343610a64565b005b34801561035157600080fd5b50610343610360366004614fd0565b611020565b34801561037157600080fd5b50610385610380366004614dec565b611060565b60405161039291906156eb565b60405180910390f35b3480156103a757600080fd5b506103856110be565b3480156103bc57600080fd5b506103c56110c4565b6040516103929190615558565b3480156103de57600080fd5b506103856103ed36600461500c565b6110d3565b3480156103fe57600080fd5b506103c561040d36600461500c565b6110f2565b34801561041e57600080fd5b506104276111e9565b604051610392919061565c565b34801561044057600080fd5b5061045461044f366004614dec565b6111f8565b604051610392919061564e565b34801561046d57600080fd5b5061034361120d565b34801561048257600080fd5b50610454611265565b34801561049757600080fd5b506103856104a6366004614e12565b61126e565b3480156104b757600080fd5b5061034361129e565b3480156104cc57600080fd5b506104e06104db366004614dec565b6112fd565b6040516103929190615610565b3480156104f957600080fd5b506103436113d7565b34801561050e57600080fd5b5061052261051d366004614dec565b61145e565b604051610392919061563f565b34801561053b57600080fd5b5061054f61054a366004615048565b611522565b604051610392919061561f565b34801561056857600080fd5b506103c561057736600461500c565b611809565b34801561058857600080fd5b50610343610597366004614e4c565b611831565b3480156105a857600080fd5b50610385611967565b3480156105bd57600080fd5b506103856105cc366004614dec565b61196d565b3480156105dd57600080fd5b5061038561197f565b3480156105f257600080fd5b50610385611985565b34801561060757600080fd5b5061061b610616366004614e12565b61198b565b60405161039291906156da565b34801561063457600080fd5b50610454611d27565b34801561064957600080fd5b5061061b610658366004614dec565b611d48565b34801561066957600080fd5b5061034361067836600461500c565b611ff3565b34801561068957600080fd5b50610385612066565b34801561069e57600080fd5b5061038561206b565b3480156106b357600080fd5b50610343612071565b3480156106c857600080fd5b506103856120d0565b3480156106dd57600080fd5b506106f16106ec36600461500c565b6120d6565b6040516103929594939291906155c4565b34801561070e57600080fd5b5061038561211f565b34801561072357600080fd5b50610343612125565b34801561073857600080fd5b50610522610747366004614e12565b6121c2565b34801561075857600080fd5b5061076c610767366004614e12565b6122de565b6040516103929291906156f9565b34801561078657600080fd5b506103c56123b0565b34801561079b57600080fd5b506103436107aa366004614e8e565b6123bf565b3480156107bb57600080fd5b506107c4612a88565b6040516103929190615630565b3480156107dd57600080fd5b50610385612b81565b3480156107f257600080fd5b50610385612b87565b34801561080757600080fd5b50610343610816366004614f60565b612b8d565b34801561082757600080fd5b506106f161083636600461500c565b6138c2565b34801561084757600080fd5b50610343610a64565b34801561085c57600080fd5b5061034361086b366004614dec565b6138d0565b34801561087c57600080fd5b506104e061088b366004614e12565b613965565b34801561089c57600080fd5b50610385613a87565b3480156108b157600080fd5b50610385613a8d565b3480156108c657600080fd5b50610385613a93565b3480156108db57600080fd5b506103436108ea366004615067565b613a99565b3480156108fb57600080fd5b5061076c61090a366004614dec565b613abe565b34801561091b57600080fd5b50610924613b47565b6040516103929b9a99989796959493929190615722565b34801561094757600080fd5b50610343610956366004615067565b613b75565b34801561096757600080fd5b50610385613ba4565b34801561097c57600080fd5b50610454613baa565b34801561099157600080fd5b506103856109a0366004614dec565b613bb3565b3480156109b157600080fd5b5061054f6109c0366004615048565b613bc5565b3480156109d157600080fd5b506103856109e0366004614dec565b613ea1565b3480156109f157600080fd5b50610343610a00366004614dec565b613eb3565b348015610a1157600080fd5b50610385613ed3565b348015610a2657600080fd5b50610343613ed9565b348015610a3b57600080fd5b50610522610a4a366004614dec565b613f55565b348015610a5b57600080fd5b5061034361408e565b600080600080600080610a75614a94565b60045460ff161515600114610a9f5760405160e560020a62461bcd0281526004016102ef9061566a565b6000600a54118015610ab35750600a544210155b8015610ac15750600b544211155b1515610ae25760405160e560020a62461bcd0281526004016102ef906156ba565b600254339750349650610afc90879063ffffffff61499516565b600160a060020a0388166000908152600f6020526040812054600e549297509550108015610b5a575086600160a060020a0316600e85815481101515610b3e57fe5b60009182526020909120600b9091020154600160a060020a0316145b15610c585784600e85815481101515610b6f57fe5b600091825260209091206001600b909202010180549091019055600e8054610bbd91889187908110610b9d57fe5b90600052602060002090600b0201600201546149ac90919063ffffffff16565b600e805486908110610bcb57fe5b600091825260209091206002600b909202010155600e805485908110610bed57fe5b60009182526020808320600d54600b93909302016005018054600180820183559185529190932092909101910155600e805485908110610c2957fe5b60009182526020808320600d54600b939093020160060180546001810182559084529220908701910155610faa565b600d80548454600180820187556000878152602080822094830194909301939093559254855493840186558583528183209089019301929092556040805161016081018252600160a060020a038b1681528084018990528082018a90528151838152808501835260608201528151928352828401825260808101929092528554815181850281018501909252808252919260a08401928791830182828015610d1f57602002820191906000526020600020905b815481526020019060010190808311610d0b575b5050505050815260200183805480602002602001604051908101604052809291908181526020018280548015610d7457602002820191906000526020600020905b815481526020019060010190808311610d60575b50505050508152602001600081526020016000604051908082528060200260200182016040528015610db0578160200160208202803883390190505b5081526020016000604051908082528060200260200182016040528015610de1578160200160208202803883390190505b50815260006020918201819052600e805460018101808355919092528351600b9092027fbb7b4a454dc3493923482f07822329ed19e8244eff582cc204f8554c3620c3fd81018054600160a060020a03909416600160a060020a0319909416939093178355848401517fbb7b4a454dc3493923482f07822329ed19e8244eff582cc204f8554c3620c3fe82015560408501517fbb7b4a454dc3493923482f07822329ed19e8244eff582cc204f8554c3620c3ff8201556060850151805195965091948694610ed5937fbb7b4a454dc3493923482f07822329ed19e8244eff582cc204f8554c3620c400909301920190614af8565b5060808201518051610ef1916004840191602090910190614b5d565b5060a08201518051610f0d916005840191602090910190614b5d565b5060c08201518051610f29916006840191602090910190614b5d565b5060e082015160078201556101008201518051610f50916008840191602090910190614af8565b506101208201518051610f6d916009840191602090910190614b5d565b506101409190910151600a9091015550600e54600160a060020a0388166000908152600f6020526040902060001990910190556010805460010190555b601154610fbd908763ffffffff6149ac16565b601155600d54604051600160a060020a038916917fc3e4bc1a3be398f788ef7e558990865c7d495f8dc18e6889b47aa99810e9e9e291611006918a9160018201918b0190615707565b60405180910390a25050600d805490930190925550505050565b600054600160a060020a0316331461103757600080fd5b60125460ff161515811515141561104d57600080fd5b6012805460ff1916911515919091179055565b600080805b6007548110156110b75783600160a060020a031660058281548110151561108857fe5b60009182526020909120600b9091020154600160a060020a031614156110af576001909101905b600101611065565b5092915050565b600c5481565b600154600160a060020a031681565b60198054829081106110e157fe5b600091825260209091200154905081565b6000808080805b600e548410156111db57600e80548590811061111157fe5b90600052602060002090600b02016005019250600e8481548110151561113357fe5b90600052602060002090600b02016006019150600090505b82548110156111d057828181548110151561116257fe5b906000526020600020015486101580156111945750818181548110151561118557fe5b90600052602060002001548611155b156111c857600e8054859081106111a757fe5b60009182526020909120600b9091020154600160a060020a031694506111e0565b60010161114b565b6001909301926110f9565b600094505b50505050919050565b601c54600160a060020a031681565b60166020526000908152604090205460ff1681565b600954600a80549091019081905560085401600b556000600c8190556011819055600d81905561123f90600e90614ba4565b6000601081905561125290601890614bc5565b61125e60196000614bc5565b6000601b55565b60125460ff1681565b60066020528160005260406000208181548110151561128957fe5b90600052602060002001600091509150505481565b600054600160a060020a031633146112b557600080fd5b6004805460ff191660019081179091556040517f5c73f6abdb831fa1351e3ac84c1b0877978a0a09915b038cc14b76dd6c20bc0b916112f39161564e565b60405180910390a1565b611305614be3565b61130d614be3565b60005b600160a060020a0384166000908152600f6020526040902054600e8054909190811061133857fe5b90600052602060002090600b0201600301805490508110156110b757600160a060020a0384166000908152600f6020526040902054600e8054909190811061137c57fe5b90600052602060002090600b02016003018181548110151561139a57fe5b600091825260209091200154600160a060020a031682826103e881106113bc57fe5b600160a060020a039092166020929092020152600101611310565b600054600160a060020a031633146113ee57600080fd5b60005474010000000000000000000000000000000000000000900460ff16151561141757600080fd5b6000805474ff0000000000000000000000000000000000000000191681556040517f7805862f689e2f13df9f062ff482ad3ad112aca9e0847911ed832e158c525b339190a1565b611466614be3565b61146e614be3565b60005b600160a060020a0384166000908152600f6020526040902054600e8054909190811061149957fe5b90600052602060002090600b0201600401805490508110156110b757600160a060020a0384166000908152600f6020526040902054600e805490919081106114dd57fe5b90600052602060002090600b0201600401818154811015156114fb57fe5b906000526020600020015482826103e88110151561151557fe5b6020020152600101611471565b61152a614c04565b611532614c04565b6000606484111580156115485750601054848601105b151561155357600080fd5b5060005b8381116117fd57600e805482870190811061156e57fe5b60009182526020918290206040805161016081018252600b9093029091018054600160a060020a031683526001810154838501526002810154838301526003810180548351818702810187019094528084529394919360608601939283018282801561160357602002820191906000526020600020905b8154600160a060020a031681526001909101906020018083116115e5575b505050505081526020016004820180548060200260200160405190810160405280929190818152602001828054801561165b57602002820191906000526020600020905b815481526020019060010190808311611647575b50505050508152602001600582018054806020026020016040519081016040528092919081815260200182805480156116b357602002820191906000526020600020905b81548152602001906001019080831161169f575b505050505081526020016006820180548060200260200160405190810160405280929190818152602001828054801561170b57602002820191906000526020600020905b8154815260200190600101908083116116f7575b50505050508152602001600782015481526020016008820180548060200260200160405190810160405280929190818152602001828054801561177757602002820191906000526020600020905b8154600160a060020a03168152600190910190602001808311611759575b50505050508152602001600982018054806020026020016040519081016040528092919081815260200182805480156117cf57602002820191906000526020600020905b8154815260200190600101908083116117bb575b50505050508152602001600a8201548152505082826064811015156117f057fe5b6020020152600101611557565b8192505b505092915050565b601880548290811061181757fe5b600091825260209091200154600160a060020a0316905081565b60125460009060ff16151560011461185e5760405160e560020a62461bcd0281526004016102ef906156ca565b600a54158061186e5750600a5442105b151561188f5760405160e560020a62461bcd0281526004016102ef9061568a565b600054600160a060020a031633146118a657600080fd5b600082116118b357600080fd5b5060005b8181101561196257601660008484848181106118cf57fe5b60209081029290920135600160a060020a031683525081019190915260400160002054600160ff9091161515141561195a57600060168185858581811061191257fe5b90506020020135600160a060020a0316600160a060020a0316600160a060020a0316815260200190815260200160002060006101000a81548160ff0219169083151502179055505b6001016118b7565b505050565b600a5481565b600f6020526000908152604090205481565b600b5481565b60115481565b611993614a94565b60008060075484111515156119a757600080fd5b5060009050805b600754811015611c905784600160a060020a03166005828154811015156119d157fe5b60009182526020909120600b9091020154600160a060020a03161415611c885760019091019083821415611c88576005805482908110611a0d57fe5b60009182526020918290206040805161016081018252600b9093029091018054600160a060020a0316835260018101548385015260028101548383015260038101805483518187028101870190945280845293949193606086019392830182828015611aa257602002820191906000526020600020905b8154600160a060020a03168152600190910190602001808311611a84575b5050505050815260200160048201805480602002602001604051908101604052809291908181526020018280548015611afa57602002820191906000526020600020905b815481526020019060010190808311611ae6575b5050505050815260200160058201805480602002602001604051908101604052809291908181526020018280548015611b5257602002820191906000526020600020905b815481526020019060010190808311611b3e575b5050505050815260200160068201805480602002602001604051908101604052809291908181526020018280548015611baa57602002820191906000526020600020905b815481526020019060010190808311611b96575b505050505081526020016007820154815260200160088201805480602002602001604051908101604052809291908181526020018280548015611c1657602002820191906000526020600020905b8154600160a060020a03168152600190910190602001808311611bf8575b5050505050815260200160098201805480602002602001604051908101604052809291908181526020018280548015611c6e57602002820191906000526020600020905b815481526020019060010190808311611c5a575b50505050508152602001600a820154815250509250611801565b6001016119ae565b50506040805161016081018252600080825260208083018290528284018290528351828152808201855260608401528351828152808201855260808401528351828152808201855260a08401528351828152808201855260c084015260e083018290528351828152808201855261010084015283518281529081019093526101208201929092526101408101919091529392505050565b60005474010000000000000000000000000000000000000000900460ff1681565b611d50614a94565b600160a060020a0382166000908152600f6020526040902054600e80549091908110611d7857fe5b60009182526020918290206040805161016081018252600b9093029091018054600160a060020a0316835260018101548385015260028101548383015260038101805483518187028101870190945280845293949193606086019392830182828015611e0d57602002820191906000526020600020905b8154600160a060020a03168152600190910190602001808311611def575b5050505050815260200160048201805480602002602001604051908101604052809291908181526020018280548015611e6557602002820191906000526020600020905b815481526020019060010190808311611e51575b5050505050815260200160058201805480602002602001604051908101604052809291908181526020018280548015611ebd57602002820191906000526020600020905b815481526020019060010190808311611ea9575b5050505050815260200160068201805480602002602001604051908101604052809291908181526020018280548015611f1557602002820191906000526020600020905b815481526020019060010190808311611f01575b505050505081526020016007820154815260200160088201805480602002602001604051908101604052809291908181526020018280548015611f8157602002820191906000526020600020905b8154600160a060020a03168152600190910190602001808311611f63575b5050505050815260200160098201805480602002602001604051908101604052809291908181526020018280548015611fd957602002820191906000526020600020905b815481526020019060010190808311611fc5575b50505050508152602001600a820154815250509050919050565b6000600a541180156120075750600a544210155b80156120155750600b544211155b15156120365760405160e560020a62461bcd0281526004016102ef906156ba565b600054600160a060020a0316331461204d57600080fd5b80151561205d5742600b55612063565b600b8190555b50565b425b90565b60085481565b600054600160a060020a0316331461208857600080fd5b60008054604051600160a060020a03909116917ff8df31144d9c2f0f6b59d69b8b98abd5459d07f2742c4df920b25aae33c6482091a260008054600160a060020a0319169055565b601b5481565b60058054829081106120e457fe5b60009182526020909120600b909102018054600182015460028301546007840154600a90940154600160a060020a0390931694509092909185565b60075481565b600054600160a060020a0316331461213c57600080fd5b60005474010000000000000000000000000000000000000000900460ff161561216457600080fd5b6000805474ff00000000000000000000000000000000000000001916740100000000000000000000000000000000000000001781556040517f6985a02210a168e66602d3235cb6db0e70f92b3ba4d376a33c0f3d9434bff6259190a1565b6121ca614be3565b6121d2614be3565b600080600060075486111515156121e857600080fd5b60009250600091505b6007548210156122d35786600160a060020a031660058381548110151561221457fe5b60009182526020909120600b9091020154600160a060020a031614156122c857600190920191858314156122c8575060005b600580548390811061225457fe5b90600052602060002090600b0201600901805490508110156122c357600580548390811061227e57fe5b90600052602060002090600b02016009018181548110151561229c57fe5b906000526020600020015484826103e8811015156122b657fe5b6020020152600101612246565b6122d3565b6001909101906121f1565b509195945050505050565b60008060008060075485111515156122f557600080fd5b5060009050805b60075481101561239f5785600160a060020a031660058281548110151561231f57fe5b60009182526020909120600b9091020154600160a060020a03161415612397576001909101908482141561239757600580548290811061235b57fe5b90600052602060002090600b02016007015460058281548110151561237c57fe5b90600052602060002090600b0201600a0154935093506123a7565b6001016122fc565b600093508392505b50509250929050565b600054600160a060020a031681565b60006123c9614c33565b60125460ff1615156001146123f35760405160e560020a62461bcd0281526004016102ef906156ca565b600a5415806124035750600a5442105b15156124245760405160e560020a62461bcd0281526004016102ef9061568a565b600054600160a060020a0316331461243b57600080fd5b60008911801561244a57508887145b801561245557508885145b801561246057508883145b151561246b57600080fd5b600091505b88821015612a7c57601660008b8b8581811061248857fe5b60209081029290920135600160a060020a03168352508101919091526040016000205460ff161515612906578989838181106124c057fe5b90506020020135600160a060020a0316600160a060020a03166014601560008d8d8781811015156124ed57fe5b90506020020135600160a060020a0316600160a060020a0316600160a060020a031681526020019081526020016000205481548110151561252a57fe5b6000918252602090912060049091020154600160a060020a031614156126fc576001601660008c8c8681811061255c57fe5b60209081029290920135600160a060020a0316835250810191909152604001600020805460ff191691151591909117905587878381811061259957fe5b602002919091013590506014601560008d8d878181106125b557fe5b90506020020135600160a060020a0316600160a060020a0316600160a060020a03168152602001908152602001600020548154811015156125f257fe5b600091825260209091206001600490920201015585858381811061261257fe5b905060200201356014601560008d8d87818110151561262d57fe5b90506020020135600160a060020a0316600160a060020a0316600160a060020a031681526020019081526020016000205481548110151561266a57fe5b600091825260209091206002600490920201015583838381811061268a57fe5b905060200201356014601560008d8d8781811015156126a557fe5b90506020020135600160a060020a0316600160a060020a0316600160a060020a03168152602001908152602001600020548154811015156126e257fe5b906000526020600020906004020160030181905550612901565b6001601660008c8c8681811061270e57fe5b90506020020135600160a060020a0316600160a060020a0316600160a060020a0316815260200190815260200160002060006101000a81548160ff0219169083151502179055506080604051908101604052808b8b85818110151561276f57fe5b90506020020135600160a060020a0316600160a060020a03168152602001898985818110151561279b57fe5b60209081029290920135835250018787858181106127b557fe5b90506020020135815260200185858581811015156127cf57fe5b602090810292909201359092526014805460018082018355600092835285517fce6d7b5282bd9a3661ae061feed1dbda4e52ab073b1f9285be6e155d9c38d4ec60049093029283018054600160a060020a031916600160a060020a03909216919091179055928501517fce6d7b5282bd9a3661ae061feed1dbda4e52ab073b1f9285be6e155d9c38d4ed82015560408501517fce6d7b5282bd9a3661ae061feed1dbda4e52ab073b1f9285be6e155d9c38d4ee82015560608501517fce6d7b5282bd9a3661ae061feed1dbda4e52ab073b1f9285be6e155d9c38d4ef9091015560178054928301905592935091601591508c8c868181106128cc57fe5b90506020020135600160a060020a0316600160a060020a0316600160a060020a03168152602001908152602001600020819055505b612a71565b87878381811061291257fe5b602002919091013590506014601560008d8d8781811061292e57fe5b90506020020135600160a060020a0316600160a060020a0316600160a060020a031681526020019081526020016000205481548110151561296b57fe5b600091825260209091206001600490920201015585858381811061298b57fe5b905060200201356014601560008d8d8781811015156129a657fe5b90506020020135600160a060020a0316600160a060020a0316600160a060020a03168152602001908152602001600020548154811015156129e357fe5b6000918252602090912060026004909202010155838383818110612a0357fe5b905060200201356014601560008d8d878181101515612a1e57fe5b90506020020135600160a060020a0316600160a060020a0316600160a060020a0316815260200190815260200160002054815481101515612a5b57fe5b9060005260206000209060040201600301819055505b600190910190612470565b50505050505050505050565b612a90614c5a565b612a98614c5a565b6000808080805b601754811015612b76576014805482908110612ab757fe5b60009182526020808320600490920290910154600160a060020a031680835260158252604080842054601690935290922054919650945060ff16925082151560011415612b6e576014805482908110612b0c57fe5b60009182526020918290206040805160808101825260049093029091018054600160a060020a031683526001810154938301939093526002830154908201526003909101546060820152868360648110612b6257fe5b60200201526001909101905b600101612a9f565b509395945050505050565b60135481565b60025481565b6000806000806000806000612ba0614a94565b60045460009060ff161515600114612bcd5760405160e560020a62461bcd0281526004016102ef9061566a565b6000600a54118015612be15750600a544210155b8015612bef5750600b544211155b1515612c105760405160e560020a62461bcd0281526004016102ef906156ba565b60125460ff161515600114612c3a5760405160e560020a62461bcd0281526004016102ef906156ca565b60008c118015612c4957508b8a145b1515612c5457600080fd5b600098505b8b8910156138b357601660008e8e8c818110612c7157fe5b60209081029290920135600160a060020a031683525081019190915260400160002054600160ff9091161515148015612cbc575060008b8b8b818110612cb357fe5b90506020020135115b1515612cc757600080fd5b3397508c8c8a818110612cd657fe5b601c8054600160a060020a031916600160a060020a0360209093029490940135821693909317928390556040517fdd62ed3e00000000000000000000000000000000000000000000000000000000815292169163dd62ed3e9150612d40908b903090600401615566565b602060405180830381600087803b158015612d5a57600080fd5b505af1158015612d6e573d6000803e3d6000fd5b505050506040513d601f19601f82011682018060405250612d92919081019061502a565b8b8b8b818110612d9e57fe5b905060200201351115612e34578c8c8a818110612db757fe5b90506020020135600160a060020a0316600160a060020a031630600160a060020a031689600160a060020a03167fabae3d6dec29baa1602fc6c2fcf63cd989238c510fa2926d3bafaa0da050b0f48e8e8e8181101515612e1357fe5b90506020020135604051612e2791906156eb565b60405180910390a4600080fd5b601c54600160a060020a03166323b872dd89308e8e8e818110612e5357fe5b905060200201356040518463ffffffff1660e060020a028152600401612e7b93929190615581565b602060405180830381600087803b158015612e9557600080fd5b505af1158015612ea9573d6000803e3d6000fd5b505050506040513d601f19601f82011682018060405250612ecd9190810190614fee565b506014601560008f8f8d818110612ee057fe5b90506020020135600160a060020a0316600160a060020a0316600160a060020a0316815260200190815260200160002054815481101515612f1d57fe5b9060005260206000209060040201600301549650612f58878c8c8c8181101515612f4357fe5b9050602002013561499590919063ffffffff16565b600160a060020a0389166000908152600f6020526040812054600e549298509650108015612fb6575087600160a060020a0316600e86815481101515612f9a57fe5b60009182526020909120600b9091020154600160a060020a0316145b156132635785600e86815481101515612fcb57fe5b6000918252602082206001600b9092020101805490920190915593508392505b600e805486908110612ff957fe5b90600052602060002090600b02016003018054905083101561312a578c8c8a81811061302157fe5b90506020020135600160a060020a0316600160a060020a0316600e8681548110151561304957fe5b90600052602060002090600b02016003018481548110151561306757fe5b600091825260209091200154600160a060020a0316141561311f576130de8b8b8b81811061309157fe5b90506020020135600e878154811015156130a757fe5b90600052602060002090600b0201600401858154811015156130c557fe5b90600052602060002001546149ac90919063ffffffff16565b600e8054879081106130ec57fe5b90600052602060002090600b02016004018481548110151561310a57fe5b6000918252602090912001556001935061312a565b600190920191612feb565b8315156131ea57600e80548690811061313f57fe5b90600052602060002090600b02016003018d8d8b818110151561315e57fe5b83546001810185556000948552602094859020018054600160a060020a031916600160a060020a039590920293909301359390931692909217905550600e8054869081106131a857fe5b90600052602060002090600b02016004018b8b8b81811015156131c757fe5b835460018101855560009485526020948590209190940292909201359190920155505b600e8054869081106131f857fe5b60009182526020808320600d54600b93909302016005018054600180820183559185529190932092909101910155600e80548690811061323457fe5b60009182526020808320600d54600b93909302016006018054600181018255908452922090880191015561367c565b6101606040519081016040528089600160a060020a031681526020018781526020016000815260200160006040519080825280602002602001820160405280156132b7578160200160208202803883390190505b50815260200160006040519080825280602002602001820160405280156132e8578160200160208202803883390190505b5081526020016000604051908082528060200260200182016040528015613319578160200160208202803883390190505b508152602001600060405190808252806020026020018201604052801561334a578160200160208202803883390190505b5081526000602080830182905260408051838152808301825281850152805183815280830182526060808601919091526080909401839052600e805460018101808355919094528551600b9094027fbb7b4a454dc3493923482f07822329ed19e8244eff582cc204f8554c3620c3fd81018054600160a060020a03909616600160a060020a0319909616959095178555868401517fbb7b4a454dc3493923482f07822329ed19e8244eff582cc204f8554c3620c3fe820155918601517fbb7b4a454dc3493923482f07822329ed19e8244eff582cc204f8554c3620c3ff83015593850151805195975093948794613467937fbb7b4a454dc3493923482f07822329ed19e8244eff582cc204f8554c3620c400909301920190614af8565b5060808201518051613483916004840191602090910190614b5d565b5060a0820151805161349f916005840191602090910190614b5d565b5060c082015180516134bb916006840191602090910190614b5d565b5060e0820151600782015561010082015180516134e2916008840191602090910190614af8565b5061012082015180516134ff916009840191602090910190614b5d565b506101409190910151600a9091015550600e8054600019810190811061352157fe5b90600052602060002090600b02016003018d8d8b818110151561354057fe5b83546001810185556000948552602094859020018054600160a060020a031916600160a060020a039590920293909301359390931692909217905550600e8054600019810190811061358e57fe5b90600052602060002090600b02016004018b8b8b81811015156135ad57fe5b83546001810185556000948552602094859020919094029290920135919092015550600e805460001981019081106135e157fe5b60009182526020808320600d54600b93909302016005018054600180820183559185529190932092909101910155600e8054600019810190811061362157fe5b60009182526020808320600d54600b9390930201600601805460018082018355918552828520938b01930192909255600e54600160a060020a038c168452600f90915260409092206000199092019091556010805490910190555b601a60008e8e8c81811061368c57fe5b90506020020135600160a060020a0316600160a060020a0316600160a060020a03168152602001908152602001600020549050600060188054905011801561371a57508c8c8a8181106136db57fe5b90506020020135600160a060020a0316600160a060020a031660188281548110151561370357fe5b600091825260209091200154600160a060020a0316145b15613763576137448b8b8b81811061372e57fe5b905060200201356019838154811015156130c557fe5b601980548390811061375257fe5b60009182526020909120015561381c565b60188d8d8b81811061377157fe5b83546001810185556000948552602094859020018054600160a060020a031916600160a060020a03959092029390930135939093169290921790555060198b8b8b8181106137bb57fe5b83546001810185556000948552602080862092029390930135920191909155506018546000190190601a908f8f8d8181106137f257fe5b60209081029290920135600160a060020a031683525081019190915260400160002055601854601b555b600d8054870190558c8c8a81811061383057fe5b90506020020135600160a060020a0316600160a060020a031630600160a060020a031689600160a060020a03167f238a42b6935beefb4ef9736ac108d7b4e495c3fe803ce8bb0a8b1191dce6ee688e8e8e818110151561388c57fe5b905060200201356040516138a091906156eb565b60405180910390a4600190980197612c59565b50505050505050505050505050565b600e8054829081106120e457fe5b600054600160a060020a031633146138e757600080fd5b600160a060020a03811615156139125760405160e560020a62461bcd0281526004016102ef906156aa565b600154600160a060020a03828116911614156139435760405160e560020a62461bcd0281526004016102ef9061569a565b60018054600160a060020a031916600160a060020a0392909216919091179055565b61396d614be3565b613975614be3565b6000806000600754861115151561398b57600080fd5b60009250600091505b6007548210156122d35786600160a060020a03166005838154811015156139b757fe5b60009182526020909120600b9091020154600160a060020a03161415613a7c5760019092019185831415613a7c575060005b60058054839081106139f757fe5b90600052602060002090600b0201600801805490508110156122c3576005805483908110613a2157fe5b90600052602060002090600b020160080181815481101515613a3f57fe5b600091825260209091200154600160a060020a031684826103e88110613a6157fe5b600160a060020a0390921660209290920201526001016139e9565b600190910190613994565b60095481565b60035481565b600d5481565b600054600160a060020a03163314613ab057600080fd5b600292909255600355601355565b600160a060020a0381166000908152600f6020526040812054600e80548392908110613ae657fe5b90600052602060002090600b020160010154600e600f600086600160a060020a0316600160a060020a0316815260200190815260200160002054815481101515613b2c57fe5b90600052602060002090600b02016002015491509150915091565b600254600354600754600a54600b54600d54601054601154601354601754601b54909192939495969798999a565b600054600160a060020a03163314613b8c57600080fd5b600a839055600882905560095501600b556000600c55565b60175481565b60045460ff1681565b601a6020526000908152604090205481565b613bcd614c04565b613bd5614c04565b600060648411158015613beb5750600754848601105b1515613bf657600080fd5b5060005b838110156117fd5760058054828701908110613c1257fe5b60009182526020918290206040805161016081018252600b9093029091018054600160a060020a0316835260018101548385015260028101548383015260038101805483518187028101870190945280845293949193606086019392830182828015613ca757602002820191906000526020600020905b8154600160a060020a03168152600190910190602001808311613c89575b5050505050815260200160048201805480602002602001604051908101604052809291908181526020018280548015613cff57602002820191906000526020600020905b815481526020019060010190808311613ceb575b5050505050815260200160058201805480602002602001604051908101604052809291908181526020018280548015613d5757602002820191906000526020600020905b815481526020019060010190808311613d43575b5050505050815260200160068201805480602002602001604051908101604052809291908181526020018280548015613daf57602002820191906000526020600020905b815481526020019060010190808311613d9b575b505050505081526020016007820154815260200160088201805480602002602001604051908101604052809291908181526020018280548015613e1b57602002820191906000526020600020905b8154600160a060020a03168152600190910190602001808311613dfd575b5050505050815260200160098201805480602002602001604051908101604052809291908181526020018280548015613e7357602002820191906000526020600020905b815481526020019060010190808311613e5f575b50505050508152602001600a820154815250508282606481101515613e9457fe5b6020020152600101613bfa565b60156020526000908152604090205481565b600054600160a060020a03163314613eca57600080fd5b612063816149b9565b60105481565b60045460ff161515600114613f035760405160e560020a62461bcd0281526004016102ef9061566a565b600054600160a060020a03163314613f1a57600080fd5b6004805460ff191690556040517f9771fc84e2fa120b80170e74050b30c776b6146814e61204cd4132031b3bc543906112f39060009061564e565b613f5d614be3565b613f65614be3565b6000808080805b600e5485101561408257600e805486908110613f8457fe5b60009182526020909120600b9091020154600e8054600160a060020a0390921695509086908110613fb157fe5b90600052602060002090600b02016005019250600e85815481101515613fd357fe5b90600052602060002090600b0201600601915087600160a060020a031684600160a060020a03161415614077575060005b825481101561407257828181548110151561401b57fe5b906000526020600020015486826103e88110151561403557fe5b6020020152815482908290811061404857fe5b906000526020600020015486826001016103e88110151561406557fe5b6020020152600101614004565b614082565b600190940193613f6c565b50939695505050505050565b6000806000806000806000806140a2614a94565b600054600160a060020a031633146140b957600080fd5b60045460ff1615156001146140e35760405160e560020a62461bcd0281526004016102ef9061566a565b6000600a541180156140f65750600b5442115b80156141025750600c54155b15156141235760405160e560020a62461bcd0281526004016102ef9061567a565b61412b614a29565b9850614136896110f2565b97506141606064614154600354601154614a4590919063ffffffff16565b9063ffffffff61499516565b601154909750614176908863ffffffff614a6e16565b9550600092505b601954831015614220576141ba60646141546013546019878154811015156141a157fe5b9060005260206000200154614a4590919063ffffffff16565b855460018101875560008781526020902001819055601980549193508591614201918591879081106141e857fe5b9060005260206000200154614a6e90919063ffffffff16565b815460018181018455600093845260209093200155929092019161417d565b42600c55600160a060020a0388166000908152600f6020526040902054600e8054909190811061424c57fe5b60009182526020918290206040805161016081018252600b9093029091018054600160a060020a03168352600181015483850152600281015483830152600381018054835181870281018701909452808452939491936060860193928301828280156142e157602002820191906000526020600020905b8154600160a060020a031681526001909101906020018083116142c3575b505050505081526020016004820180548060200260200160405190810160405280929190818152602001828054801561433957602002820191906000526020600020905b815481526020019060010190808311614325575b505050505081526020016005820180548060200260200160405190810160405280929190818152602001828054801561439157602002820191906000526020600020905b81548152602001906001019080831161437d575b50505050508152602001600682018054806020026020016040519081016040528092919081815260200182805480156143e957602002820191906000526020600020905b8154815260200190600101908083116143d5575b50505050508152602001600782015481526020016008820180548060200260200160405190810160405280929190818152602001828054801561445557602002820191906000526020600020905b8154600160a060020a03168152600190910190602001808311614437575b50505050508152602001600982018054806020026020016040519081016040528092919081815260200182805480156144ad57602002820191906000526020600020905b815481526020019060010190808311614499575b5050509183525050600a919091015460209182015260e08201889052601880546040805182850281018501909152818152939450909183018282801561451c57602002820191906000526020600020905b8154600160a060020a031681526001909101906020018083116144fe575b505050505061010082015283546040805160208084028201810190925282815291869183018282801561456e57602002820191906000526020600020905b81548152602001906001019080831161455a575b5050505050610120820152600c54610140820152600580546001810180835560009290925282517f036b6384b5eca791c62761152d0c79bb0604c104a5fb6f4eb0703f3154bb3db0600b9092029182018054600160a060020a031916600160a060020a039092169190911781556020808501517f036b6384b5eca791c62761152d0c79bb0604c104a5fb6f4eb0703f3154bb3db184015560408501517f036b6384b5eca791c62761152d0c79bb0604c104a5fb6f4eb0703f3154bb3db2840155606085015180518694614667937f036b6384b5eca791c62761152d0c79bb0604c104a5fb6f4eb0703f3154bb3db3909101920190614af8565b5060808201518051614683916004840191602090910190614b5d565b5060a0820151805161469f916005840191602090910190614b5d565b5060c082015180516146bb916006840191602090910190614b5d565b5060e0820151600782015561010082015180516146e2916008840191602090910190614af8565b5061012082015180516146ff916009840191602090910190614b5d565b506101409190910151600a9091015550600780546001808201909255600160a060020a038a16600081815260066020908152604080832080549687018155835290822090940192909255915188156108fc0291899190818181858888f19350505050158015614772573d6000803e3d6000fd5b50600154604051600160a060020a039091169088156108fc029089906000818181858888f193505050501580156147ad573d6000803e3d6000fd5b50600092505b60185483101561493d5760188054849081106147cb57fe5b600091825260209091200154601c8054600160a060020a031916600160a060020a039283161790819055855491169063a9059cbb908a9087908790811061480e57fe5b90600052602060002001546040518363ffffffff1660e060020a0281526004016148399291906155a9565b602060405180830381600087803b15801561485357600080fd5b505af1158015614867573d6000803e3d6000fd5b505050506040513d601f19601f8201168201806040525061488b9190810190614fee565b50601c546001548654600160a060020a039283169263a9059cbb9216908890879081106148b457fe5b90600052602060002001546040518363ffffffff1660e060020a0281526004016148df9291906155a9565b602060405180830381600087803b1580156148f957600080fd5b505af115801561490d573d6000803e3d6000fd5b505050506040513d601f19601f820116820180604052506149319190810190614fee565b506001909201916147b3565b61494561120d565b87600160a060020a03167f6f596fbef34cb26903400d8cd59f21226a170ecefd394287e37d0184cb2df2ab8a600c546040516149829291906156f9565b60405180910390a2505050505050505050565b600081838115156149a257fe5b0490505b92915050565b818101828110156149a657fe5b600160a060020a03811615156149ce57600080fd5b60008054604051600160a060020a03808516939216917f8be0079c531659141344cd1fd0a4f28419497f9722a3daafe3b4186f6b6457e091a360008054600160a060020a031916600160a060020a0392909216919091179055565b6000600d54614a36614a80565b811515614a3f57fe5b06905090565b6000821515614a56575060006149a6565b50818102818382811515614a6657fe5b04146149a657fe5b600082821115614a7a57fe5b50900390565b63ffffffff6341c64e6d4302613039011690565b610160604051908101604052806000600160a060020a03168152602001600081526020016000815260200160608152602001606081526020016060815260200160608152602001600081526020016060815260200160608152602001600081525090565b828054828255906000526020600020908101928215614b4d579160200282015b82811115614b4d5782518254600160a060020a031916600160a060020a03909116178255602090920191600190910190614b18565b50614b59929150614c89565b5090565b828054828255906000526020600020908101928215614b98579160200282015b82811115614b98578251825591602001919060010190614b7d565b50614b59929150614cad565b50805460008255600b02906000526020600020908101906120639190614cc7565b50805460008255906000526020600020908101906120639190614cad565b617d00604051908101604052806103e8906020820280388339509192915050565b618980604051908101604052806064905b614c1d614a94565b815260200190600190039081614c155790505090565b60408051608081018252600080825260208201819052918101829052606081019190915290565b613200604051908101604052806064905b614c73614c33565b815260200190600190039081614c6b5790505090565b61206891905b80821115614b59578054600160a060020a0319168155600101614c8f565b61206891905b80821115614b595760008155600101614cb3565b61206891905b80821115614b59578054600160a060020a031916815560006001820181905560028201819055614d006003830182614bc5565b614d0e600483016000614bc5565b614d1c600583016000614bc5565b614d2a600683016000614bc5565b6007820160009055600882016000614d429190614bc5565b614d50600983016000614bc5565b506000600a820155600b01614ccd565b6000614d6c82356157dd565b9392505050565b600080601f83018413614d8557600080fd5b50813567ffffffffffffffff811115614d9d57600080fd5b602083019150836020820283011115614db557600080fd5b9250929050565b6000614d6c82356157e9565b6000614d6c82516157e9565b6000614d6c8235612068565b6000614d6c8251612068565b600060208284031215614dfe57600080fd5b6000614e0a8484614d60565b949350505050565b60008060408385031215614e2557600080fd5b6000614e318585614d60565b9250506020614e4285828601614dd4565b9150509250929050565b60008060208385031215614e5f57600080fd5b823567ffffffffffffffff811115614e7657600080fd5b614e8285828601614d73565b92509250509250929050565b6000806000806000806000806080898b031215614eaa57600080fd5b883567ffffffffffffffff811115614ec157600080fd5b614ecd8b828c01614d73565b9850985050602089013567ffffffffffffffff811115614eec57600080fd5b614ef88b828c01614d73565b9650965050604089013567ffffffffffffffff811115614f1757600080fd5b614f238b828c01614d73565b9450945050606089013567ffffffffffffffff811115614f4257600080fd5b614f4e8b828c01614d73565b92509250509295985092959890939650565b60008060008060408587031215614f7657600080fd5b843567ffffffffffffffff811115614f8d57600080fd5b614f9987828801614d73565b9450945050602085013567ffffffffffffffff811115614fb857600080fd5b614fc487828801614d73565b95989497509550505050565b600060208284031215614fe257600080fd5b6000614e0a8484614dbc565b60006020828403121561500057600080fd5b6000614e0a8484614dc8565b60006020828403121561501e57600080fd5b6000614e0a8484614dd4565b60006020828403121561503c57600080fd5b6000614e0a8484614de0565b6000806040838503121561505b57600080fd5b6000614e318585614dd4565b60008060006060848603121561507c57600080fd5b60006150888686614dd4565b935050602061509986828701614dd4565b92505060406150aa86828701614dd4565b9150509250925092565b6150bd816157dd565b82525050565b6150cc816157cc565b6150d582612068565b60005b82811015615105576150eb8583516150b4565b6150f4826157c6565b6020959095019491506001016150d8565b5050505050565b6000615117826157d3565b808452602084019350615129836157c6565b60005b828110156151595761513f8683516150b4565b615148826157c6565b60209690960195915060010161512c565b5093949350505050565b600061516e826157d7565b8360208202850161517e85612068565b60005b848110156151b55783830388526151998383516153fd565b92506151a4826157c6565b602098909801979150600101615181565b50909695505050505050565b6151ca816157d7565b6151d382612068565b60005b82811015615105576151e9858351615508565b6151f2826157c6565b6080959095019491506001016151d6565b61520c816157cc565b61521582612068565b60005b828110156151055761522b85835161529b565b615234826157c6565b602095909501949150600101615218565b6000615250826157d3565b808452602084019350615262836157c6565b60005b828110156151595761527886835161529b565b615281826157c6565b602096909601959150600101615265565b6150bd816157e9565b6150bd81612068565b6150bd816157ee565b601581527f67616d65206973206e6f74206163746976617465640000000000000000000000602082015260400190565b601181527f706f74206973206e6f7420636c6f736564000000000000000000000000000000602082015260400190565b601281527f706f74206973206e6f7420657863757465640000000000000000000000000000602082015260400190565b60208082527f6e657720616e64206f6c64206164647265737320617265207468652073616d659082015260400190565b601981527f6e6577206f70657261746f722061646472657373206973203000000000000000602082015260400190565b601281527f67616d65206973206e6f74206163746976650000000000000000000000000000602082015260400190565b601b81527f546f6b656e207061796d656e74206973206e6f74206163746976650000000000602082015260400190565b805160009061016084019061541285826150b4565b506020830151615425602086018261529b565b506040830151615438604086018261529b565b5060608301518482036060860152615450828261510c565b9150506080830151848203608086015261546a8282615245565b91505060a083015184820360a08601526154848282615245565b91505060c083015184820360c086015261549e8282615245565b91505060e08301516154b360e086018261529b565b506101008301518482036101008601526154cd828261510c565b9150506101208301518482036101208601526154e98282615245565b91505061014083015161550061014086018261529b565b509392505050565b8051608083019061551984826150b4565b50602082015161552c602085018261529b565b50604082015161553f604085018261529b565b506060820151615552606085018261529b565b50505050565b602081016149a682846150b4565b6040810161557482856150b4565b614d6c60208301846150b4565b6060810161558f82866150b4565b61559c60208301856150b4565b614e0a604083018461529b565b604081016155b782856150b4565b614d6c602083018461529b565b60a081016155d282886150b4565b6155df602083018761529b565b6155ec604083018661529b565b6155f9606083018561529b565b615606608083018461529b565b9695505050505050565b617d0081016149a682846150c3565b60208082528101614d6c8184615163565b61320081016149a682846151c1565b617d0081016149a68284615203565b602081016149a68284615292565b602081016149a682846152a4565b602080825281016149a6816152ad565b602080825281016149a6816152dd565b602080825281016149a68161530d565b602080825281016149a68161533d565b602080825281016149a68161536d565b602080825281016149a68161539d565b602080825281016149a6816153cd565b60208082528101614d6c81846153fd565b602081016149a6828461529b565b604081016155b7828561529b565b60608101615715828661529b565b61559c602083018561529b565b6101608101615731828e61529b565b61573e602083018d61529b565b61574b604083018c61529b565b615758606083018b61529b565b615765608083018a61529b565b61577260a083018961529b565b61577f60c083018861529b565b61578c60e083018761529b565b61579a61010083018661529b565b6157a861012083018561529b565b6157b661014083018461529b565b9c9b505050505050505050505050565b60200190565b506103e890565b5190565b50606490565b600160a060020a031690565b151590565b60006149a6826157dd5600a265627a7a723058209e55288ea4146efabae2a72842edfdd74c054e9933cc4e5cb5b60de0a6a2f8486c6578706572696d656e74616cf50037",
  "source": "pragma solidity ^0.4.24;\npragma experimental ABIEncoderV2;\n\n// Use for remix editor\n// import \"github.com/OpenZeppelin/openzeppelin-solidity/contracts/ownership/Ownable.sol\";\n// import \"github.com/OpenZeppelin/openzeppelin-solidity/contracts/token/ERC20/ERC20.sol\";\n// import \"github.com/OpenZeppelin/openzeppelin-solidity/contracts/lifecycle/Pausable.sol\";\n// import \"github.com/OpenZeppelin/openzeppelin-solidity/contracts/math/SafeMath.sol\";\n\n// User for truffle and vscode editor\nimport \"openzeppelin-solidity/contracts/ownership/Ownable.sol\";\nimport \"openzeppelin-solidity/contracts/token/ERC20/ERC20.sol\";\nimport \"openzeppelin-solidity/contracts/lifecycle/Pausable.sol\";\nimport \"openzeppelin-solidity/contracts/math/SafeMath.sol\";\n\ncontract AxRaffle is Ownable, Pausable {\n    using SafeMath for uint;\n\n    // Pot player info\n    struct AxPotPlayerInfo {\n        // Pot player info\n        address player_; // player address\n        uint totalOwnedTickets_; // total tickets owned in pot\n        uint totalUsedWeiAmt_; // total wei amt used to buy tickets\n        address[] usedTokens_; // list of tokens player used to buy tickets\n        uint[] totalUsedTokenAmts_; // amount of tokens players buyed tickets\n        uint[] ticketStartNumbers_; // list of ticket start numbers player buyed\n        uint[] ticketEndNumbers_; // list of ticket end numbers player buyed\n        // Pot winner info\n        uint potPrizeWeiAmt_; // total wei in pot for prize excluded fee\n        address[] potPrizeTokens_; // list of tokens in pot for prize\n        uint[] potPrizeTokenAmts_; // amount of tokens in pot for prize excluded fee\n        uint potEndedTimeStamp_; // pot ended timestamp kept \n    }\n\n    // Token info\n    struct AxTokenInfo {\n        address contract_;\n        bytes32 symbol_;\n        uint decimals_;\n        uint amountPerTicket_;\n    }\n    \n    // Variables\n    address public operatorAddress; // Operator wallet address\n\n    uint public weiPerTicket; // Single sale price for ticket in wei\n    uint public weiFeeRate; // fee rate (extracted from total prize) for game operator, input 10 <=> 10%\n    bool public gameIsActive; // Active flag for Raffle game\n\n    AxPotPlayerInfo[] public gameWinners; // List of winners in game\n    mapping(address => uint[]) public gameWinnerIndexes; // List of winner indexes\n    uint public lengthOfGameWinners; // Length of game winner list\n\n    uint public potSellingPeriod; // Pot selling period (s) for calculating pot closed timestamp\n    uint public potOpeningPeriod; // Pot opening period (s) for calculating next open timestamp\n\n    uint public potOpenedTimestamp; // Pot opened timestamp, unix timestamp UTC\n    uint public potClosedTimestamp; // Pot opened timestamp, unix timestamp UTC\n    uint public potEndedTimestamp; // Pot ended timestamp, unix timestamp UTC\n    \n    uint public ticketNumberCeiling; // current latest of ticket number\n    AxPotPlayerInfo[] public potPlayers; // List of pot players\n    mapping(address => uint) public potPlayerIndexes; // index of player in pot player list\n    uint public lengthOfPotPlayers; // Total players in pot\n\n    uint public totalWeiPot; // Total wei in pot\n\n    // For token payment\n    bool public isActiveTokenPayment; // status of token payment method\n    uint public tokenFeeRate; // fee for using token payment\n    AxTokenInfo[] gameTokens; // List of tokens accepted in game\n    mapping(address => uint) public gameTokenIndexes; // Game token indexes\n    mapping(address => bool) public gameTokenStatuses; // Game token status, true: active, false: inactive\n    uint public lengthOfGameTokens; // Total tokens accepted as payment in game\n    address[] public potTokens; // List of tokens used in pot\n    uint[] public potTokenAmts; // Amount of tokens used in pot\n    mapping(address => uint) public potTokenIndexes; // List of token indexes used in pot\n    uint public lengthOfPotTokens; // Total tokens used as payment in pot\n\n    ERC20  public ERC20Interface; // ERC20 token interface\n\n    // Events\n    event ActivateGame(bool _active);\n    event DeactivateGame(bool _deactive);\n    event PurchaseTicketsByWei(address indexed playerAddress, uint weiAmount, uint startTicketNumber, uint endTicketNumber);\n    event DrawTicket(address indexed winnerAddress, uint winnerTicketNumber, uint potEndedTimestamp);\n    event TokenTransferFailed(address indexed from_, address indexed to_, address indexed token_, uint tokenAmount_);\n    event TokenTransferSuccessful(address indexed from_, address indexed to_, address indexed token_, uint tokenAmount_);\n\n    // Modifiers\n    modifier activatedGame() {\n        require(gameIsActive == true, \"game is not activated\");\n        _;\n    }\n\n    modifier potIsOpened() {\n        require(potOpenedTimestamp > 0 && now >= potOpenedTimestamp && now <= potClosedTimestamp, \"game is not active\");\n        _;\n    }\n\n    modifier potIsClosed() {\n        require(potOpenedTimestamp > 0 && now > potClosedTimestamp && potEndedTimestamp == 0, \"pot is not closed\");\n        _;\n    }\n\n    modifier potIsNotExecuted() {\n        require(potOpenedTimestamp == 0 || now < potOpenedTimestamp, \"pot is not excuted\");\n        _;\n    }\n\n    modifier activatedTokenPayment() {\n        require(isActiveTokenPayment == true, \"Token payment is not active\");\n        _;\n    }    \n\n    // Constructor function\n    constructor(\n        address _operatorAddress,\n        uint _potSellingPeriod, \n        uint _potOpeningPeriod, \n        uint _weiPerTicket, \n        uint _weiFeeRate,\n        uint _tokenFeeRate\n    ) public {\n\n    // Just for testing\n    // constructor() public {\n\n        require (_operatorAddress != address(0), \"operator address is 0\");\n        operatorAddress = _operatorAddress;\n        potSellingPeriod = _potSellingPeriod;\n        potOpeningPeriod = _potOpeningPeriod;\n        weiPerTicket = _weiPerTicket;\n        weiFeeRate = _weiFeeRate;\n        tokenFeeRate = _tokenFeeRate;\n        // Init variable value\n        gameIsActive = false;\n        potOpenedTimestamp = 0;\n        potClosedTimestamp = 0;\n        potEndedTimestamp = 0;\n        lengthOfGameWinners = 0;\n        ticketNumberCeiling = 0;\n        lengthOfPotPlayers = 0;\n        totalWeiPot = 0;\n        isActiveTokenPayment = false;\n        lengthOfGameTokens = 0;\n        lengthOfPotTokens = 0;\n\n        // just for testing\n        // operatorAddress = address(0x7da4907fc6bd5d6939f2954cf4eb0989c5726d16);\n        // potSellingPeriod = 28800;\n        // potOpeningPeriod = 86400;\n        // weiPerTicket = 1000000000000000;\n        // weiFeeRate = 10;\n        // tokenFeeRate = 10;\n        // gameIsActive = true;\n        // isActiveTokenPayment = true;\n        // potOpenedTimestamp = now;\n        // potClosedTimestamp = potOpenedTimestamp + potSellingPeriod;\n        // gameTokens[address(0xf6425fab636a8065e0c625d52b17cb07c6839f77)] = AxTokenInfo(address(0xf6425fab636a8065e0c625d52b17cb07c6839f77),\"GEX\",18,6000000000000000000);\n        // lengthOfGameTokens++;\n    }\n\n    // Set operator wallet address\n    function setOperatorWalletAddress (address _operatorAddress) external onlyOwner {\n        require(_operatorAddress != address(0), \"new operator address is 0\");\n        require(_operatorAddress != operatorAddress, \"new and old address are the same\");\n        operatorAddress = _operatorAddress;\n    }\n\n    // Activate / Deactive token payment method\n    function setTokenPaymentStatus(bool _isActiveTokenPayment) external onlyOwner {\n        require(isActiveTokenPayment != _isActiveTokenPayment);\n        isActiveTokenPayment = _isActiveTokenPayment;\n    }\n\n    // Add new token payment list\n    // - If tokens existed in list before, we just update their symbols, decimals and amount per ticket\n    // - Otherwise, we will add them to list, then update their status and indexes\n    function addNewTokenPaymentInfo(address[] _tokens, bytes32[] _tokenSymbols, uint[] _tokenDecimals, uint[] _amountPerTicket) external activatedTokenPayment potIsNotExecuted onlyOwner {\n        require(_tokens.length > 0 && _tokens.length == _tokenSymbols.length && _tokens.length == _tokenDecimals.length && _tokens.length == _amountPerTicket.length);\n        for (uint i = 0; i < _tokens.length; i++) {\n            if (gameTokenStatuses[_tokens[i]] == false) {\n                if (gameTokens[gameTokenIndexes[_tokens[i]]].contract_ == _tokens[i]) {\n                    gameTokenStatuses[_tokens[i]] = true;\n                    gameTokens[gameTokenIndexes[_tokens[i]]].symbol_ = _tokenSymbols[i];\n                    gameTokens[gameTokenIndexes[_tokens[i]]].decimals_ = _tokenDecimals[i];\n                    gameTokens[gameTokenIndexes[_tokens[i]]].amountPerTicket_ = _amountPerTicket[i];\n                } else {\n                    gameTokenStatuses[_tokens[i]] = true;\n                    AxTokenInfo memory axToken = AxTokenInfo(_tokens[i],_tokenSymbols[i],_tokenDecimals[i],_amountPerTicket[i]);\n                    gameTokens.push(axToken);\n                    lengthOfGameTokens = lengthOfGameTokens + 1;                    \n                    gameTokenIndexes[_tokens[i]] = lengthOfGameTokens - 1;\n                }\n\n            } else {\n                gameTokens[gameTokenIndexes[_tokens[i]]].symbol_ = _tokenSymbols[i];\n                gameTokens[gameTokenIndexes[_tokens[i]]].decimals_ = _tokenDecimals[i];\n                gameTokens[gameTokenIndexes[_tokens[i]]].amountPerTicket_ = _amountPerTicket[i];\n            }\n        }\n    }\n\n    // Remove token payment list\n    // - Update status of tokens to false\n    function removeTokenPaymentInfo(address[] _tokens) external activatedTokenPayment potIsNotExecuted onlyOwner {\n        require(_tokens.length > 0);\n        for (uint i = 0; i < _tokens.length; i++) {\n            if (gameTokenStatuses[_tokens[i]] == true) {\n                gameTokenStatuses[_tokens[i]] = false;\n            }            \n        }\n    }\n\n    // Set ticket price by wei, wei fee rate and token fee rate\n    function setTicketSales(uint _weiPerTicket, uint _weiFeeRate, uint _tokenFeeRate) external onlyOwner {\n        weiPerTicket = _weiPerTicket;\n        weiFeeRate = _weiFeeRate;\n        tokenFeeRate = _tokenFeeRate;\n    }\n\n    // Activate game\n    function activateGame() external onlyOwner {\n        gameIsActive = true;\n        emit ActivateGame(true);\n    }\n\n    // Deactive game\n    function deactivateGame() external activatedGame onlyOwner {\n        gameIsActive = false;\n        emit DeactivateGame(false);\n    }\n\n    // Open pot\n    function openPot(uint _potOpenedTimestamp, uint _potSellingPeriod, uint _potOpeningPeriod) external onlyOwner {\n        potOpenedTimestamp = _potOpenedTimestamp;\n        potSellingPeriod = _potSellingPeriod;\n        potOpeningPeriod = _potOpeningPeriod;\n        potClosedTimestamp = potOpenedTimestamp + potSellingPeriod;\n        potEndedTimestamp = 0;\n    }\n\n    // Close pot\n    function closePot(uint _potClosedTimestamp) external potIsOpened onlyOwner {\n        if (_potClosedTimestamp == 0) {\n            potClosedTimestamp = now;\n            return;\n        }\n        potClosedTimestamp = _potClosedTimestamp;\n    }\n\n    // Buy tickets by ERC20 tokens\n    // - Require which token must registered in payment list\n    // - Assume that sender approved allowance for contract before\n    // - Validate the allowance amount\n    // - Complete tx as being successful or failed\n    // - Update pot plater list\n    // - Update pot token amount\n    // Note: token amount here will be received amount in its smallest unit based on its decimal\n    function purchaseTicketsByTokens(address[] _tokens, uint[] _tokenAmts) external activatedGame potIsOpened activatedTokenPayment {\n        require(_tokens.length > 0 && _tokens.length == _tokenAmts.length);\n        for (uint i = 0; i < _tokens.length; i++) {\n            // require(gameTokens[_tokens[i]].contract_ == _tokens[i] && _tokenAmts[i] > 0);\n            require(gameTokenStatuses[_tokens[i]] == true && _tokenAmts[i] > 0);\n            // Purchase tickets by tokens\n            address player = msg.sender;\n            ERC20Interface = ERC20(_tokens[i]);\n            if (_tokenAmts[i] > ERC20Interface.allowance(player,address(this))) {\n                emit TokenTransferFailed(player, address(this), _tokens[i], _tokenAmts[i]);\n                revert();\n            }\n            ERC20Interface.transferFrom(player, address(this), _tokenAmts[i]);\n            uint ticketPrice = gameTokens[gameTokenIndexes[_tokens[i]]].amountPerTicket_;\n            uint numberOfTickets = _tokenAmts[i].div(ticketPrice);\n            // Update pot player list\n            uint playerIdx = potPlayerIndexes[player];\n            // In case of existed player\n            if (potPlayers.length > 0 && potPlayers[playerIdx].player_ == player) {\n                potPlayers[playerIdx].totalOwnedTickets_ += numberOfTickets;\n                // Update relevant used token amount\n                bool isUpdated = false;\n                for (uint j = 0; j < potPlayers[playerIdx].usedTokens_.length; j++) {\n                    if (potPlayers[playerIdx].usedTokens_[j] == _tokens[i]) {\n                        potPlayers[playerIdx].totalUsedTokenAmts_[j] = potPlayers[playerIdx].totalUsedTokenAmts_[j].add(_tokenAmts[i]);\n                        isUpdated = true;\n                        break;\n                    }\n                }\n                if (isUpdated == false) {\n                    potPlayers[playerIdx].usedTokens_.push(_tokens[i]);\n                    potPlayers[playerIdx].totalUsedTokenAmts_.push(_tokenAmts[i]);\n                }\n                // Update range of tickets\n                potPlayers[playerIdx].ticketStartNumbers_.push(ticketNumberCeiling + 1);\n                potPlayers[playerIdx].ticketEndNumbers_.push(ticketNumberCeiling + numberOfTickets);\n            } \n            // In case of non-existed player\n            else {                \n                AxPotPlayerInfo memory axPotPlayer = AxPotPlayerInfo(player,numberOfTickets,0,new address[](0),new uint[](0),new uint[](0),new uint[](0),0,new address[](0),new uint[](0),0);\n                potPlayers.push(axPotPlayer);\n                potPlayers[potPlayers.length - 1].usedTokens_.push(_tokens[i]);                \n                potPlayers[potPlayers.length - 1].totalUsedTokenAmts_.push(_tokenAmts[i]);\n                potPlayers[potPlayers.length - 1].ticketStartNumbers_.push(ticketNumberCeiling + 1);\n                potPlayers[potPlayers.length - 1].ticketEndNumbers_.push(ticketNumberCeiling + numberOfTickets);\n                potPlayerIndexes[player] = potPlayers.length - 1;\n                lengthOfPotPlayers++;\n            }\n            // Update pot tokens amount\n            uint tokenIdx = potTokenIndexes[_tokens[i]];\n            // In case of existed tokens\n            if (potTokens.length > 0 && potTokens[tokenIdx] == _tokens[i]) {\n                potTokenAmts[tokenIdx] = potTokenAmts[tokenIdx].add(_tokenAmts[i]);\n            } \n            // In case of non-existed tokens\n            else {\n                potTokens.push(_tokens[i]);\n                potTokenAmts.push(_tokenAmts[i]);\n                potTokenIndexes[_tokens[i]] = potTokens.length - 1;\n                lengthOfPotTokens = potTokens.length;\n            }\n            // Update ticket ceiling number\n            ticketNumberCeiling += numberOfTickets;\n\n            emit TokenTransferSuccessful(player, address(this), _tokens[i], _tokenAmts[i]);\n        }\n    }\n\n    // Fallback function for buy tickets by Ether\n    function () external payable activatedGame potIsOpened {\n        purchaseTicketsByWei();\n    }\n    \n    // Purchase tickets to players by ETH\n    // - Validate tx by pot open timestamp range\n    // - Receive ether amount\n    // - Calculate relevant number of tickets\n    // - Update pot player list\n    // - Update pot total wei\n    function purchaseTicketsByWei() public activatedGame potIsOpened {\n        address player = msg.sender;\n        uint totalWeiAmt = msg.value;\n        uint numberOfTickets = totalWeiAmt.div(weiPerTicket);\n        // Update pot player list\n        uint playerIdx = potPlayerIndexes[player];\n        // In case of existed players\n        if (potPlayers.length > 0 && potPlayers[playerIdx].player_ == player) {\n            potPlayers[playerIdx].totalOwnedTickets_ += numberOfTickets;\n            potPlayers[playerIdx].totalUsedWeiAmt_ = potPlayers[playerIdx].totalUsedWeiAmt_.add(totalWeiAmt);\n            // Update range of tickets\n            potPlayers[playerIdx].ticketStartNumbers_.push(ticketNumberCeiling + 1);\n            potPlayers[playerIdx].ticketEndNumbers_.push(ticketNumberCeiling + numberOfTickets);\n        }\n        // In case of non-existed players\n        else {\n            uint[] ticketStartNumbers;\n            uint[] ticketEndNumbers;\n            ticketStartNumbers.push(ticketNumberCeiling + 1);\n            ticketEndNumbers.push(ticketNumberCeiling + numberOfTickets);            \n            AxPotPlayerInfo memory axPotPlayer = AxPotPlayerInfo(player,numberOfTickets,totalWeiAmt,new address[](0),new uint[](0),ticketStartNumbers,ticketEndNumbers,0,new address[](0),new uint[](0),0);\n            potPlayers.push(axPotPlayer);\n            potPlayerIndexes[player] = potPlayers.length - 1;        \n            lengthOfPotPlayers++;\n        }\n        // Update total pot wei amount\n        totalWeiPot = totalWeiPot.add(totalWeiAmt);\n\n        emit PurchaseTicketsByWei(player, totalWeiAmt, ticketNumberCeiling + 1, ticketNumberCeiling + numberOfTickets);\n\n        // Update ticket ceiling number\n        ticketNumberCeiling += numberOfTickets;\n    }\n\n    // Draw ticket\n    // - Require pot closed\n    // - Randow ticket number for prize\n    // - Set end pot timestamp\n    // - Update game winner list\n    // - Allocate prize and fee\n    // - Prepare opening next pot\n    function drawTicket() external onlyOwner activatedGame potIsClosed {\n        // Draw ticket\n        uint winnerTicket = ticketNumberRandom();\n        address winnerAddress = lookUpPlayerAddressByTicketNumber(winnerTicket);\n        uint totalWeiFeeAmt = (totalWeiPot.mul(weiFeeRate)).div(100);\n        uint totalWeiPrizeAmt = totalWeiPot.sub(totalWeiFeeAmt);\n        uint[] tokenFeeAmts;\n        uint[] tokenPrizeAmts;\n        for (uint i = 0; i < potTokenAmts.length; i++) {\n            uint tokenFeeAmt = (potTokenAmts[i].mul(tokenFeeRate)).div(100);\n            tokenFeeAmts.push(tokenFeeAmt);\n            tokenPrizeAmts.push(potTokenAmts[i].sub(tokenFeeAmt));\n        }\n        // End pot\n        potEndedTimestamp = now;\n        // Update winner list\n        AxPotPlayerInfo memory winner = potPlayers[potPlayerIndexes[winnerAddress]];\n        winner.potPrizeWeiAmt_ = totalWeiPrizeAmt;\n        winner.potPrizeTokens_ = potTokens;\n        winner.potPrizeTokenAmts_ = tokenPrizeAmts;\n        winner.potEndedTimeStamp_ = potEndedTimestamp;\n        gameWinners.push(winner);\n        lengthOfGameWinners++;\n        gameWinnerIndexes[winnerAddress].push(lengthOfGameWinners - 1);\n        // Allocate prize and fee\n        // Allocate wei\n        winnerAddress.transfer(totalWeiPrizeAmt);\n        operatorAddress.transfer(totalWeiFeeAmt);\n        // Allocate tokens\n        for (i = 0; i < potTokens.length; i++) {\n            ERC20Interface = ERC20(potTokens[i]);\n            ERC20Interface.transfer(winnerAddress,tokenPrizeAmts[i]);\n            ERC20Interface.transfer(operatorAddress,tokenFeeAmts[i]);\n        }\n        // Prepare opening next pot\n        prepareOpeningNextPot();\n\n        emit DrawTicket(winnerAddress,winnerTicket,potEndedTimestamp);\n    }\n\n    // Prepare for opening next pot\n    function prepareOpeningNextPot() {\n        potOpenedTimestamp = potOpenedTimestamp + potOpeningPeriod;\n        potClosedTimestamp = potOpenedTimestamp + potSellingPeriod;\n        potEndedTimestamp = 0;\n        totalWeiPot = 0;\n        ticketNumberCeiling = 0;\n        // Reset pot player list\n        delete potPlayers;\n        lengthOfPotPlayers = 0;\n        // Reset pot token list\n        delete potTokens;\n        delete potTokenAmts;\n        lengthOfPotTokens = 0;\n    }\n\n    // Look up owner by ticket number\n    function lookUpPlayerAddressByTicketNumber(uint _ticketNumber) public view returns (address) {\n        for (uint i = 0; i < potPlayers.length; i++) {            \n            uint[] ticketStartNumbers = potPlayers[i].ticketStartNumbers_;\n            uint[] ticketEndNumbers = potPlayers[i].ticketEndNumbers_;\n            for (uint j = 0; j < ticketStartNumbers.length; j++) {\n                if (_ticketNumber >= ticketStartNumbers[j] && _ticketNumber <= ticketEndNumbers[j]) {\n                    return potPlayers[i].player_;\n                }\n            }\n        }\n        return address(0);\n    }\n\n    // Look up ticket numbers by player address\n    function lookUpTicketNumbersByPlayerAddress(address _playerAddress) public view returns (uint[1000]) {\n        uint[1000] memory potTicketList;\n        for (uint i = 0; i < potPlayers.length; i++) {\n            address player = potPlayers[i].player_;\n            uint[] ticketStartNumbers = potPlayers[i].ticketStartNumbers_;\n            uint[] ticketEndNumbers = potPlayers[i].ticketEndNumbers_;\n            if (player == _playerAddress) {\n                for (uint j = 0; j < ticketStartNumbers.length; j++) {\n                    potTicketList[j] = ticketStartNumbers[j];\n                    potTicketList[j+1] = ticketEndNumbers[j];                    \n                }\n                break;\n            }\n        }\n        return potTicketList;\n    }\n\n    // Check current timestamp in smart contract\n    function checkCurrentTimestamp() external view returns (uint) {\n        return now;\n    }\n\n    // Random ticket number\n    function ticketNumberRandom() private view returns (uint) {\n        return LCGRandom() % ticketNumberCeiling;\n    }\n\n    // Linear Congruential Generator algorithm\n    function LCGRandom() private view returns (uint) {\n        uint seed = block.number;\n        uint a = 1103515245;\n        uint c = 12345;\n        uint m = 2 ** 32;\n\n        return (a * seed + c) % m;\n    }\n\n    // Get game paramters\n    function getRaffleParams() public view returns (uint,uint,uint,uint,uint,uint,uint,uint,uint,uint,uint) {\n        return (weiPerTicket,weiFeeRate,lengthOfGameWinners,potOpenedTimestamp,potClosedTimestamp,ticketNumberCeiling,lengthOfPotPlayers,totalWeiPot,tokenFeeRate,lengthOfGameTokens,lengthOfPotTokens);\n    }\n\n    // Get 100 pot players by index\n    function get100PotPlayers(uint _from, uint _noPlayers) external view returns(AxPotPlayerInfo[100]) {\n        require(_noPlayers <= 100 && _from + _noPlayers < lengthOfPotPlayers);\n        AxPotPlayerInfo[100] memory potPlayerList;\n        for (uint i = 0; i <=  _noPlayers; i++) {\n            potPlayerList[i] = potPlayers[i+_from];\n        }\n        return potPlayerList;\n    }\n\n    // Get pot player info by player address\n    function getPotPlayerInfoByAddress(address _player) public view returns(AxPotPlayerInfo) {\n        return potPlayers[potPlayerIndexes[_player]];\n    }\n\n    // Get pot player total owned tickets and used wei by player address\n    function getPotPlayerTotalOwnedTicketsAndUsedWeiByAddress(address _player) public view returns(uint,uint) {\n        return (potPlayers[potPlayerIndexes[_player]].totalOwnedTickets_,potPlayers[potPlayerIndexes[_player]].totalUsedWeiAmt_);\n    }\n\n    // Get pot player used tokens by address\n    function getPotPlayerUsedTokensByAddress(address _player) public view returns (address[1000]) {\n        address[1000] memory usedTokenList;\n        for (uint i = 0; i < potPlayers[potPlayerIndexes[_player]].usedTokens_.length; i++) {\n            usedTokenList[i] = potPlayers[potPlayerIndexes[_player]].usedTokens_[i];\n        }\n        return usedTokenList;\n    }\n\n    // Get pot player used amount of tokens by address\n    function getPotPlayerUsedTokenAmtsByAddress(address _player) public view returns (uint[1000]) {\n        uint[1000] memory totalUsedTokenAmts;\n        for (uint i = 0; i < potPlayers[potPlayerIndexes[_player]].totalUsedTokenAmts_.length; i++) {\n            totalUsedTokenAmts[i] = potPlayers[potPlayerIndexes[_player]].totalUsedTokenAmts_[i];\n        }        \n        return totalUsedTokenAmts;\n    }\n\n    // Get 100 winners by index\n    function get100Winners(uint _from, uint _noWinners) external view returns(AxPotPlayerInfo[100]) {\n        require(_noWinners <= 100 && _from + _noWinners < lengthOfGameWinners);\n        AxPotPlayerInfo[100] memory winnerList;\n        for (uint i = 0; i < _noWinners; i++) {\n            winnerList[i] = gameWinners[i+_from];\n        }\n        return winnerList;\n    }\n\n    // Get winner info by address and won time\n    function getWinnerInfoByAddressAndIndex(address _winner, uint _time) external view returns(AxPotPlayerInfo) {\n        require(_time <= lengthOfGameWinners);\n        uint wonTime = 0;\n        for (uint i = 0; i < lengthOfGameWinners; i++) {\n            if (gameWinners[i].player_ == _winner) {\n                wonTime++;\n                if (wonTime == _time) {\n                    return gameWinners[i];\n                }\n            }\n        }\n        return AxPotPlayerInfo(address(0),0,0,new address[](0),new uint[](0),new uint[](0),new uint[](0),0,new address[](0),new uint[](0),0);\n    }\n\n    // Get pot prize wei amount and ended timestamp by winner address and won time\n    function getWinnerPotWeiAndTimestampByAddressAndIndex(address _winner, uint _time) external view returns(uint,uint) {\n        require(_time <= lengthOfGameWinners);\n        uint wonTime = 0;\n        for (uint i = 0; i < lengthOfGameWinners; i++) {\n            if (gameWinners[i].player_ == _winner) {\n                wonTime++;\n                if (wonTime == _time) {\n                    return (gameWinners[i].potPrizeWeiAmt_,gameWinners[i].potEndedTimeStamp_);\n                }\n            }\n        }\n        return (0,0);\n    }\n\n    // Get pot prize tokens by winner address and won time\n    function getWinnerPotPrizeTokensByAddressAndIndex(address _winner, uint _time) external view returns(address[1000]) {\n        require(_time <= lengthOfGameWinners);\n        address[1000] memory potPrizeTokens;\n        uint wonTime = 0;\n        for (uint i = 0; i < lengthOfGameWinners; i++) {\n            if (gameWinners[i].player_ == _winner) {\n                wonTime++;\n                if (wonTime == _time) {\n                    for (uint j = 0; j < gameWinners[i].potPrizeTokens_.length; j++) {\n                        potPrizeTokens[j] = gameWinners[i].potPrizeTokens_[j];\n                    }\n                    break;\n                }\n            }\n        }\n        return potPrizeTokens;\n    }\n\n    // Get pot prize amount of tokens by winner address and won time\n    function getWinnerPotPrizeTokenAmtsByAddressAndIndex(address _winner, uint _time) external view returns(uint[1000]) {\n        require(_time <= lengthOfGameWinners);\n        uint[1000] memory potPrizeTokenAmts;\n        uint wonTime = 0;\n        for (uint i = 0; i < lengthOfGameWinners; i++) {\n            if (gameWinners[i].player_ == _winner) {\n                wonTime++;\n                if (wonTime == _time) {\n                    for (uint j = 0; j < gameWinners[i].potPrizeTokenAmts_.length; j++) {\n                        potPrizeTokenAmts[j] = gameWinners[i].potPrizeTokenAmts_[j];\n                    }                    \n                    break;\n                }\n            }\n        }\n        return potPrizeTokenAmts;\n    }\n\n    // Get number of won times by winner address\n    function getWonTimeByAddress(address _winner) external view returns(uint) {\n        uint wonTime = 0;\n        for (uint i = 0; i < lengthOfGameWinners; i++) {\n            if (gameWinners[i].player_ == _winner) {\n                wonTime++;\n            }\n        }\n        return wonTime;\n    }\n\n    // Get active game tokens by index\n    function getActiveGameTokens() external view returns(AxTokenInfo[100]) {\n        AxTokenInfo[100] memory gameTokenList;\n        address gameTokenAddress;\n        uint gameTokenIdx;\n        bool gameTokenStatus;\n        uint idx = 0;\n        for (uint i = 0; i < lengthOfGameTokens; i++) {\n            gameTokenAddress = gameTokens[i].contract_;\n            gameTokenIdx = gameTokenIndexes[gameTokenAddress];\n            gameTokenStatus = gameTokenStatuses[gameTokenAddress];\n            if (gameTokenStatus == true) {\n                gameTokenList[idx] = gameTokens[i];\n                idx++;\n            }\n        }\n        return gameTokenList;\n    }\n}",
  "sourcePath": "/usr/src/app/contracts/AxRaffle.sol",
  "compiler": {
    "name": "solc",
    "version": "0.4.24+commit.e67f0147.Emscripten.clang"
  },
  "schemaVersion": "2.0.1",
  "updatedAt": "2018-10-04T11:51:38.808Z"
}